{
  "_format": "hh-sol-artifact-1",
  "contractName": "XP",
  "sourceName": "contracts/XP.sol",
  "abi": [
    {
      "inputs": [],
      "stateMutability": "nonpayable",
      "type": "constructor"
    },
    {
      "anonymous": false,
      "inputs": [
        {
          "indexed": true,
          "internalType": "address",
          "name": "owner",
          "type": "address"
        },
        {
          "indexed": true,
          "internalType": "address",
          "name": "spender",
          "type": "address"
        },
        {
          "indexed": false,
          "internalType": "uint256",
          "name": "value",
          "type": "uint256"
        }
      ],
      "name": "Approval",
      "type": "event"
    },
    {
      "anonymous": false,
      "inputs": [
        {
          "indexed": true,
          "internalType": "address",
          "name": "previousOwner",
          "type": "address"
        },
        {
          "indexed": true,
          "internalType": "address",
          "name": "newOwner",
          "type": "address"
        }
      ],
      "name": "OwnershipTransferred",
      "type": "event"
    },
    {
      "anonymous": false,
      "inputs": [
        {
          "indexed": true,
          "internalType": "address",
          "name": "from",
          "type": "address"
        },
        {
          "indexed": true,
          "internalType": "address",
          "name": "to",
          "type": "address"
        },
        {
          "indexed": false,
          "internalType": "uint256",
          "name": "value",
          "type": "uint256"
        }
      ],
      "name": "Transfer",
      "type": "event"
    },
    {
      "inputs": [
        {
          "internalType": "address",
          "name": "controller",
          "type": "address"
        }
      ],
      "name": "addController",
      "outputs": [],
      "stateMutability": "nonpayable",
      "type": "function"
    },
    {
      "inputs": [
        {
          "internalType": "address",
          "name": "owner",
          "type": "address"
        },
        {
          "internalType": "address",
          "name": "spender",
          "type": "address"
        }
      ],
      "name": "allowance",
      "outputs": [
        {
          "internalType": "uint256",
          "name": "",
          "type": "uint256"
        }
      ],
      "stateMutability": "view",
      "type": "function"
    },
    {
      "inputs": [
        {
          "internalType": "address",
          "name": "spender",
          "type": "address"
        },
        {
          "internalType": "uint256",
          "name": "amount",
          "type": "uint256"
        }
      ],
      "name": "approve",
      "outputs": [
        {
          "internalType": "bool",
          "name": "",
          "type": "bool"
        }
      ],
      "stateMutability": "nonpayable",
      "type": "function"
    },
    {
      "inputs": [
        {
          "internalType": "address",
          "name": "account",
          "type": "address"
        }
      ],
      "name": "balanceOf",
      "outputs": [
        {
          "internalType": "uint256",
          "name": "",
          "type": "uint256"
        }
      ],
      "stateMutability": "view",
      "type": "function"
    },
    {
      "inputs": [
        {
          "internalType": "address",
          "name": "from",
          "type": "address"
        },
        {
          "internalType": "uint256",
          "name": "amount",
          "type": "uint256"
        }
      ],
      "name": "burn",
      "outputs": [],
      "stateMutability": "nonpayable",
      "type": "function"
    },
    {
      "inputs": [],
      "name": "decimals",
      "outputs": [
        {
          "internalType": "uint8",
          "name": "",
          "type": "uint8"
        }
      ],
      "stateMutability": "view",
      "type": "function"
    },
    {
      "inputs": [
        {
          "internalType": "address",
          "name": "spender",
          "type": "address"
        },
        {
          "internalType": "uint256",
          "name": "subtractedValue",
          "type": "uint256"
        }
      ],
      "name": "decreaseAllowance",
      "outputs": [
        {
          "internalType": "bool",
          "name": "",
          "type": "bool"
        }
      ],
      "stateMutability": "nonpayable",
      "type": "function"
    },
    {
      "inputs": [
        {
          "internalType": "address",
          "name": "spender",
          "type": "address"
        },
        {
          "internalType": "uint256",
          "name": "addedValue",
          "type": "uint256"
        }
      ],
      "name": "increaseAllowance",
      "outputs": [
        {
          "internalType": "bool",
          "name": "",
          "type": "bool"
        }
      ],
      "stateMutability": "nonpayable",
      "type": "function"
    },
    {
      "inputs": [
        {
          "internalType": "address",
          "name": "to",
          "type": "address"
        },
        {
          "internalType": "uint256",
          "name": "amount",
          "type": "uint256"
        }
      ],
      "name": "mint",
      "outputs": [],
      "stateMutability": "nonpayable",
      "type": "function"
    },
    {
      "inputs": [],
      "name": "name",
      "outputs": [
        {
          "internalType": "string",
          "name": "",
          "type": "string"
        }
      ],
      "stateMutability": "view",
      "type": "function"
    },
    {
      "inputs": [],
      "name": "owner",
      "outputs": [
        {
          "internalType": "address",
          "name": "",
          "type": "address"
        }
      ],
      "stateMutability": "view",
      "type": "function"
    },
    {
      "inputs": [
        {
          "internalType": "address",
          "name": "controller",
          "type": "address"
        }
      ],
      "name": "removeController",
      "outputs": [],
      "stateMutability": "nonpayable",
      "type": "function"
    },
    {
      "inputs": [],
      "name": "renounceOwnership",
      "outputs": [],
      "stateMutability": "nonpayable",
      "type": "function"
    },
    {
      "inputs": [],
      "name": "symbol",
      "outputs": [
        {
          "internalType": "string",
          "name": "",
          "type": "string"
        }
      ],
      "stateMutability": "view",
      "type": "function"
    },
    {
      "inputs": [],
      "name": "totalSupply",
      "outputs": [
        {
          "internalType": "uint256",
          "name": "",
          "type": "uint256"
        }
      ],
      "stateMutability": "view",
      "type": "function"
    },
    {
      "inputs": [
        {
          "internalType": "address",
          "name": "recipient",
          "type": "address"
        },
        {
          "internalType": "uint256",
          "name": "amount",
          "type": "uint256"
        }
      ],
      "name": "transfer",
      "outputs": [
        {
          "internalType": "bool",
          "name": "",
          "type": "bool"
        }
      ],
      "stateMutability": "nonpayable",
      "type": "function"
    },
    {
      "inputs": [
        {
          "internalType": "address",
          "name": "sender",
          "type": "address"
        },
        {
          "internalType": "address",
          "name": "recipient",
          "type": "address"
        },
        {
          "internalType": "uint256",
          "name": "amount",
          "type": "uint256"
        }
      ],
      "name": "transferFrom",
      "outputs": [
        {
          "internalType": "bool",
          "name": "",
          "type": "bool"
        }
      ],
      "stateMutability": "nonpayable",
      "type": "function"
    },
    {
      "inputs": [
        {
          "internalType": "address",
          "name": "newOwner",
          "type": "address"
        }
      ],
      "name": "transferOwnership",
      "outputs": [],
      "stateMutability": "nonpayable",
      "type": "function"
    }
  ],
  "bytecode": "0x60806040523480156200001157600080fd5b506040518060400160405280600281526020017f58500000000000000000000000000000000000000000000000000000000000008152506040518060400160405280600281526020017f5850000000000000000000000000000000000000000000000000000000000000815250816003908051906020019062000096929190620001a6565b508060049080519060200190620000af929190620001a6565b505050620000d2620000c6620000d860201b60201c565b620000e060201b60201c565b620002bb565b600033905090565b6000600560009054906101000a900473ffffffffffffffffffffffffffffffffffffffff16905081600560006101000a81548173ffffffffffffffffffffffffffffffffffffffff021916908373ffffffffffffffffffffffffffffffffffffffff1602179055508173ffffffffffffffffffffffffffffffffffffffff168173ffffffffffffffffffffffffffffffffffffffff167f8be0079c531659141344cd1fd0a4f28419497f9722a3daafe3b4186f6b6457e060405160405180910390a35050565b828054620001b49062000256565b90600052602060002090601f016020900481019282620001d8576000855562000224565b82601f10620001f357805160ff191683800117855562000224565b8280016001018555821562000224579182015b828111156200022357825182559160200191906001019062000206565b5b50905062000233919062000237565b5090565b5b808211156200025257600081600090555060010162000238565b5090565b600060028204905060018216806200026f57607f821691505b602082108114156200028657620002856200028c565b5b50919050565b7f4e487b7100000000000000000000000000000000000000000000000000000000600052602260045260246000fd5b61205b80620002cb6000396000f3fe608060405234801561001057600080fd5b50600436106101165760003560e01c80638da5cb5b116100a2578063a7fc7a0711610071578063a7fc7a07146102e3578063a9059cbb146102ff578063dd62ed3e1461032f578063f2fde38b1461035f578063f6a74ed71461037b57610116565b80638da5cb5b1461025b57806395d89b41146102795780639dc29fac14610297578063a457c2d7146102b357610116565b8063313ce567116100e9578063313ce567146101b757806339509351146101d557806340c10f191461020557806370a0823114610221578063715018a61461025157610116565b806306fdde031461011b578063095ea7b31461013957806318160ddd1461016957806323b872dd14610187575b600080fd5b610123610397565b6040516101309190611c10565b60405180910390f35b610153600480360381019061014e919061162d565b610429565b6040516101609190611bf5565b60405180910390f35b610171610447565b60405161017e9190611df2565b60405180910390f35b6101a1600480360381019061019c91906115de565b610451565b6040516101ae9190611bf5565b60405180910390f35b6101bf610549565b6040516101cc9190611e0d565b60405180910390f35b6101ef60048036038101906101ea919061162d565b610552565b6040516101fc9190611bf5565b60405180910390f35b61021f600480360381019061021a919061162d565b6105fe565b005b61023b60048036038101906102369190611579565b610698565b6040516102489190611df2565b60405180910390f35b6102596106e0565b005b610263610768565b6040516102709190611bda565b60405180910390f35b610281610792565b60405161028e9190611c10565b60405180910390f35b6102b160048036038101906102ac919061162d565b610824565b005b6102cd60048036038101906102c8919061162d565b6108be565b6040516102da9190611bf5565b60405180910390f35b6102fd60048036038101906102f89190611579565b6109a9565b005b6103196004803603810190610314919061162d565b610a80565b6040516103269190611bf5565b60405180910390f35b610349600480360381019061034491906115a2565b610a9e565b6040516103569190611df2565b60405180910390f35b61037960048036038101906103749190611579565b610b25565b005b61039560048036038101906103909190611579565b610c1d565b005b6060600380546103a690611f56565b80601f01602080910402602001604051908101604052809291908181526020018280546103d290611f56565b801561041f5780601f106103f45761010080835404028352916020019161041f565b820191906000526020600020905b81548152906001019060200180831161040257829003601f168201915b5050505050905090565b600061043d610436610cf4565b8484610cfc565b6001905092915050565b6000600254905090565b600061045e848484610ec7565b6000600160008673ffffffffffffffffffffffffffffffffffffffff1673ffffffffffffffffffffffffffffffffffffffff16815260200190815260200160002060006104a9610cf4565b73ffffffffffffffffffffffffffffffffffffffff1673ffffffffffffffffffffffffffffffffffffffff16815260200190815260200160002054905082811015610529576040517f08c379a000000000000000000000000000000000000000000000000000000000815260040161052090611d12565b60405180910390fd5b61053d85610535610cf4565b858403610cfc565b60019150509392505050565b60006012905090565b60006105f461055f610cf4565b84846001600061056d610cf4565b73ffffffffffffffffffffffffffffffffffffffff1673ffffffffffffffffffffffffffffffffffffffff16815260200190815260200160002060008873ffffffffffffffffffffffffffffffffffffffff1673ffffffffffffffffffffffffffffffffffffffff168152602001908152602001600020546105ef9190611e44565b610cfc565b6001905092915050565b600660003373ffffffffffffffffffffffffffffffffffffffff1673ffffffffffffffffffffffffffffffffffffffff16815260200190815260200160002060009054906101000a900460ff1661068a576040517f08c379a000000000000000000000000000000000000000000000000000000000815260040161068190611cd2565b60405180910390fd5b6106948282611148565b5050565b60008060008373ffffffffffffffffffffffffffffffffffffffff1673ffffffffffffffffffffffffffffffffffffffff168152602001908152602001600020549050919050565b6106e8610cf4565b73ffffffffffffffffffffffffffffffffffffffff16610706610768565b73ffffffffffffffffffffffffffffffffffffffff161461075c576040517f08c379a000000000000000000000000000000000000000000000000000000000815260040161075390611d32565b60405180910390fd5b61076660006112a8565b565b6000600560009054906101000a900473ffffffffffffffffffffffffffffffffffffffff16905090565b6060600480546107a190611f56565b80601f01602080910402602001604051908101604052809291908181526020018280546107cd90611f56565b801561081a5780601f106107ef5761010080835404028352916020019161081a565b820191906000526020600020905b8154815290600101906020018083116107fd57829003601f168201915b5050505050905090565b600660003373ffffffffffffffffffffffffffffffffffffffff1673ffffffffffffffffffffffffffffffffffffffff16815260200190815260200160002060009054906101000a900460ff166108b0576040517f08c379a00000000000000000000000000000000000000000000000000000000081526004016108a790611cf2565b60405180910390fd5b6108ba828261136e565b5050565b600080600160006108cd610cf4565b73ffffffffffffffffffffffffffffffffffffffff1673ffffffffffffffffffffffffffffffffffffffff16815260200190815260200160002060008573ffffffffffffffffffffffffffffffffffffffff1673ffffffffffffffffffffffffffffffffffffffff1681526020019081526020016000205490508281101561098a576040517f08c379a000000000000000000000000000000000000000000000000000000000815260040161098190611db2565b60405180910390fd5b61099e610995610cf4565b85858403610cfc565b600191505092915050565b6109b1610cf4565b73ffffffffffffffffffffffffffffffffffffffff166109cf610768565b73ffffffffffffffffffffffffffffffffffffffff1614610a25576040517f08c379a0000000000000000000000000000000000000000000000000000000008152600401610a1c90611d32565b60405180910390fd5b6001600660008373ffffffffffffffffffffffffffffffffffffffff1673ffffffffffffffffffffffffffffffffffffffff16815260200190815260200160002060006101000a81548160ff02191690831515021790555050565b6000610a94610a8d610cf4565b8484610ec7565b6001905092915050565b6000600160008473ffffffffffffffffffffffffffffffffffffffff1673ffffffffffffffffffffffffffffffffffffffff16815260200190815260200160002060008373ffffffffffffffffffffffffffffffffffffffff1673ffffffffffffffffffffffffffffffffffffffff16815260200190815260200160002054905092915050565b610b2d610cf4565b73ffffffffffffffffffffffffffffffffffffffff16610b4b610768565b73ffffffffffffffffffffffffffffffffffffffff1614610ba1576040517f08c379a0000000000000000000000000000000000000000000000000000000008152600401610b9890611d32565b60405180910390fd5b600073ffffffffffffffffffffffffffffffffffffffff168173ffffffffffffffffffffffffffffffffffffffff161415610c11576040517f08c379a0000000000000000000000000000000000000000000000000000000008152600401610c0890611c72565b60405180910390fd5b610c1a816112a8565b50565b610c25610cf4565b73ffffffffffffffffffffffffffffffffffffffff16610c43610768565b73ffffffffffffffffffffffffffffffffffffffff1614610c99576040517f08c379a0000000000000000000000000000000000000000000000000000000008152600401610c9090611d32565b60405180910390fd5b6000600660008373ffffffffffffffffffffffffffffffffffffffff1673ffffffffffffffffffffffffffffffffffffffff16815260200190815260200160002060006101000a81548160ff02191690831515021790555050565b600033905090565b600073ffffffffffffffffffffffffffffffffffffffff168373ffffffffffffffffffffffffffffffffffffffff161415610d6c576040517f08c379a0000000000000000000000000000000000000000000000000000000008152600401610d6390611d92565b60405180910390fd5b600073ffffffffffffffffffffffffffffffffffffffff168273ffffffffffffffffffffffffffffffffffffffff161415610ddc576040517f08c379a0000000000000000000000000000000000000000000000000000000008152600401610dd390611c92565b60405180910390fd5b80600160008573ffffffffffffffffffffffffffffffffffffffff1673ffffffffffffffffffffffffffffffffffffffff16815260200190815260200160002060008473ffffffffffffffffffffffffffffffffffffffff1673ffffffffffffffffffffffffffffffffffffffff168152602001908152602001600020819055508173ffffffffffffffffffffffffffffffffffffffff168373ffffffffffffffffffffffffffffffffffffffff167f8c5be1e5ebec7d5bd14f71427d1e84f3dd0314c0f7b2291e5b200ac8c7c3b92583604051610eba9190611df2565b60405180910390a3505050565b600073ffffffffffffffffffffffffffffffffffffffff168373ffffffffffffffffffffffffffffffffffffffff161415610f37576040517f08c379a0000000000000000000000000000000000000000000000000000000008152600401610f2e90611d72565b60405180910390fd5b600073ffffffffffffffffffffffffffffffffffffffff168273ffffffffffffffffffffffffffffffffffffffff161415610fa7576040517f08c379a0000000000000000000000000000000000000000000000000000000008152600401610f9e90611c32565b60405180910390fd5b610fb2838383611545565b60008060008573ffffffffffffffffffffffffffffffffffffffff1673ffffffffffffffffffffffffffffffffffffffff16815260200190815260200160002054905081811015611038576040517f08c379a000000000000000000000000000000000000000000000000000000000815260040161102f90611cb2565b60405180910390fd5b8181036000808673ffffffffffffffffffffffffffffffffffffffff1673ffffffffffffffffffffffffffffffffffffffff16815260200190815260200160002081905550816000808573ffffffffffffffffffffffffffffffffffffffff1673ffffffffffffffffffffffffffffffffffffffff16815260200190815260200160002060008282546110cb9190611e44565b925050819055508273ffffffffffffffffffffffffffffffffffffffff168473ffffffffffffffffffffffffffffffffffffffff167fddf252ad1be2c89b69c2b068fc378daa952ba7f163c4a11628f55a4df523b3ef8460405161112f9190611df2565b60405180910390a361114284848461154a565b50505050565b600073ffffffffffffffffffffffffffffffffffffffff168273ffffffffffffffffffffffffffffffffffffffff1614156111b8576040517f08c379a00000000000000000000000000000000000000000000000000000000081526004016111af90611dd2565b60405180910390fd5b6111c460008383611545565b80600260008282546111d69190611e44565b92505081905550806000808473ffffffffffffffffffffffffffffffffffffffff1673ffffffffffffffffffffffffffffffffffffffff168152602001908152602001600020600082825461122b9190611e44565b925050819055508173ffffffffffffffffffffffffffffffffffffffff16600073ffffffffffffffffffffffffffffffffffffffff167fddf252ad1be2c89b69c2b068fc378daa952ba7f163c4a11628f55a4df523b3ef836040516112909190611df2565b60405180910390a36112a46000838361154a565b5050565b6000600560009054906101000a900473ffffffffffffffffffffffffffffffffffffffff16905081600560006101000a81548173ffffffffffffffffffffffffffffffffffffffff021916908373ffffffffffffffffffffffffffffffffffffffff1602179055508173ffffffffffffffffffffffffffffffffffffffff168173ffffffffffffffffffffffffffffffffffffffff167f8be0079c531659141344cd1fd0a4f28419497f9722a3daafe3b4186f6b6457e060405160405180910390a35050565b600073ffffffffffffffffffffffffffffffffffffffff168273ffffffffffffffffffffffffffffffffffffffff1614156113de576040517f08c379a00000000000000000000000000000000000000000000000000000000081526004016113d590611d52565b60405180910390fd5b6113ea82600083611545565b60008060008473ffffffffffffffffffffffffffffffffffffffff1673ffffffffffffffffffffffffffffffffffffffff16815260200190815260200160002054905081811015611470576040517f08c379a000000000000000000000000000000000000000000000000000000000815260040161146790611c52565b60405180910390fd5b8181036000808573ffffffffffffffffffffffffffffffffffffffff1673ffffffffffffffffffffffffffffffffffffffff1681526020019081526020016000208190555081600260008282546114c79190611e9a565b92505081905550600073ffffffffffffffffffffffffffffffffffffffff168373ffffffffffffffffffffffffffffffffffffffff167fddf252ad1be2c89b69c2b068fc378daa952ba7f163c4a11628f55a4df523b3ef8460405161152c9190611df2565b60405180910390a36115408360008461154a565b505050565b505050565b505050565b60008135905061155e81611ff7565b92915050565b6000813590506115738161200e565b92915050565b60006020828403121561158b57600080fd5b60006115998482850161154f565b91505092915050565b600080604083850312156115b557600080fd5b60006115c38582860161154f565b92505060206115d48582860161154f565b9150509250929050565b6000806000606084860312156115f357600080fd5b60006116018682870161154f565b93505060206116128682870161154f565b925050604061162386828701611564565b9150509250925092565b6000806040838503121561164057600080fd5b600061164e8582860161154f565b925050602061165f85828601611564565b9150509250929050565b61167281611ece565b82525050565b61168181611ee0565b82525050565b600061169282611e28565b61169c8185611e33565b93506116ac818560208601611f23565b6116b581611fe6565b840191505092915050565b60006116cd602383611e33565b91507f45524332303a207472616e7366657220746f20746865207a65726f206164647260008301527f65737300000000000000000000000000000000000000000000000000000000006020830152604082019050919050565b6000611733602283611e33565b91507f45524332303a206275726e20616d6f756e7420657863656564732062616c616e60008301527f63650000000000000000000000000000000000000000000000000000000000006020830152604082019050919050565b6000611799602683611e33565b91507f4f776e61626c653a206e6577206f776e657220697320746865207a65726f206160008301527f64647265737300000000000000000000000000000000000000000000000000006020830152604082019050919050565b60006117ff602283611e33565b91507f45524332303a20617070726f766520746f20746865207a65726f20616464726560008301527f73730000000000000000000000000000000000000000000000000000000000006020830152604082019050919050565b6000611865602683611e33565b91507f45524332303a207472616e7366657220616d6f756e742065786365656473206260008301527f616c616e636500000000000000000000000000000000000000000000000000006020830152604082019050919050565b60006118cb601983611e33565b91507f4f6e6c7920636f6e74726f6c6c6572732063616e206d696e74000000000000006000830152602082019050919050565b600061190b601983611e33565b91507f4f6e6c7920636f6e74726f6c6c6572732063616e206275726e000000000000006000830152602082019050919050565b600061194b602883611e33565b91507f45524332303a207472616e7366657220616d6f756e742065786365656473206160008301527f6c6c6f77616e63650000000000000000000000000000000000000000000000006020830152604082019050919050565b60006119b1602083611e33565b91507f4f776e61626c653a2063616c6c6572206973206e6f7420746865206f776e65726000830152602082019050919050565b60006119f1602183611e33565b91507f45524332303a206275726e2066726f6d20746865207a65726f2061646472657360008301527f73000000000000000000000000000000000000000000000000000000000000006020830152604082019050919050565b6000611a57602583611e33565b91507f45524332303a207472616e736665722066726f6d20746865207a65726f20616460008301527f64726573730000000000000000000000000000000000000000000000000000006020830152604082019050919050565b6000611abd602483611e33565b91507f45524332303a20617070726f76652066726f6d20746865207a65726f2061646460008301527f72657373000000000000000000000000000000000000000000000000000000006020830152604082019050919050565b6000611b23602583611e33565b91507f45524332303a2064656372656173656420616c6c6f77616e63652062656c6f7760008301527f207a65726f0000000000000000000000000000000000000000000000000000006020830152604082019050919050565b6000611b89601f83611e33565b91507f45524332303a206d696e7420746f20746865207a65726f2061646472657373006000830152602082019050919050565b611bc581611f0c565b82525050565b611bd481611f16565b82525050565b6000602082019050611bef6000830184611669565b92915050565b6000602082019050611c0a6000830184611678565b92915050565b60006020820190508181036000830152611c2a8184611687565b905092915050565b60006020820190508181036000830152611c4b816116c0565b9050919050565b60006020820190508181036000830152611c6b81611726565b9050919050565b60006020820190508181036000830152611c8b8161178c565b9050919050565b60006020820190508181036000830152611cab816117f2565b9050919050565b60006020820190508181036000830152611ccb81611858565b9050919050565b60006020820190508181036000830152611ceb816118be565b9050919050565b60006020820190508181036000830152611d0b816118fe565b9050919050565b60006020820190508181036000830152611d2b8161193e565b9050919050565b60006020820190508181036000830152611d4b816119a4565b9050919050565b60006020820190508181036000830152611d6b816119e4565b9050919050565b60006020820190508181036000830152611d8b81611a4a565b9050919050565b60006020820190508181036000830152611dab81611ab0565b9050919050565b60006020820190508181036000830152611dcb81611b16565b9050919050565b60006020820190508181036000830152611deb81611b7c565b9050919050565b6000602082019050611e076000830184611bbc565b92915050565b6000602082019050611e226000830184611bcb565b92915050565b600081519050919050565b600082825260208201905092915050565b6000611e4f82611f0c565b9150611e5a83611f0c565b9250827fffffffffffffffffffffffffffffffffffffffffffffffffffffffffffffffff03821115611e8f57611e8e611f88565b5b828201905092915050565b6000611ea582611f0c565b9150611eb083611f0c565b925082821015611ec357611ec2611f88565b5b828203905092915050565b6000611ed982611eec565b9050919050565b60008115159050919050565b600073ffffffffffffffffffffffffffffffffffffffff82169050919050565b6000819050919050565b600060ff82169050919050565b60005b83811015611f41578082015181840152602081019050611f26565b83811115611f50576000848401525b50505050565b60006002820490506001821680611f6e57607f821691505b60208210811415611f8257611f81611fb7565b5b50919050565b7f4e487b7100000000000000000000000000000000000000000000000000000000600052601160045260246000fd5b7f4e487b7100000000000000000000000000000000000000000000000000000000600052602260045260246000fd5b6000601f19601f8301169050919050565b61200081611ece565b811461200b57600080fd5b50565b61201781611f0c565b811461202257600080fd5b5056fea26469706673582212206643e303aac7a2eb5aa0a18e7a57675cffcafb6d70b75ae4b521a0a151cf8b7464736f6c63430008000033",
  "linkReferences": {},
  "deployedLinkReferences": {}
}