{
  "_format": "hh-sol-artifact-1",
  "contractName": "Arena",
  "sourceName": "contracts/Arena.sol",
  "abi": [
    {
      "inputs": [
        {
          "internalType": "address",
          "name": "_champContract",
          "type": "address"
        }
      ],
      "stateMutability": "nonpayable",
      "type": "constructor"
    },
    {
      "anonymous": false,
      "inputs": [
        {
          "indexed": false,
          "internalType": "uint256[]",
          "name": "",
          "type": "uint256[]"
        },
        {
          "indexed": false,
          "internalType": "uint256",
          "name": "",
          "type": "uint256"
        },
        {
          "indexed": false,
          "internalType": "uint256",
          "name": "",
          "type": "uint256"
        }
      ],
      "name": "BattleEnd",
      "type": "event"
    },
    {
      "anonymous": false,
      "inputs": [
        {
          "indexed": false,
          "internalType": "address",
          "name": "",
          "type": "address"
        },
        {
          "indexed": false,
          "internalType": "uint256",
          "name": "",
          "type": "uint256"
        }
      ],
      "name": "ChampionEntered",
      "type": "event"
    },
    {
      "anonymous": false,
      "inputs": [
        {
          "indexed": true,
          "internalType": "address",
          "name": "previousOwner",
          "type": "address"
        },
        {
          "indexed": true,
          "internalType": "address",
          "name": "newOwner",
          "type": "address"
        }
      ],
      "name": "OwnershipTransferred",
      "type": "event"
    },
    {
      "anonymous": false,
      "inputs": [
        {
          "indexed": false,
          "internalType": "address",
          "name": "",
          "type": "address"
        },
        {
          "indexed": false,
          "internalType": "uint256",
          "name": "",
          "type": "uint256"
        }
      ],
      "name": "Received",
      "type": "event"
    },
    {
      "inputs": [],
      "name": "arenaInfo",
      "outputs": [
        {
          "components": [
            {
              "internalType": "uint256",
              "name": "battleCount",
              "type": "uint256"
            },
            {
              "internalType": "uint256",
              "name": "entryOpenBlock",
              "type": "uint256"
            },
            {
              "internalType": "uint256",
              "name": "entryClosedBlock",
              "type": "uint256"
            },
            {
              "internalType": "uint256",
              "name": "battleStartBlock",
              "type": "uint256"
            },
            {
              "internalType": "uint256",
              "name": "battleEndBlock",
              "type": "uint256"
            },
            {
              "internalType": "uint256",
              "name": "numPlayers",
              "type": "uint256"
            },
            {
              "internalType": "uint256",
              "name": "bounty",
              "type": "uint256"
            },
            {
              "internalType": "bool",
              "name": "entryActive",
              "type": "bool"
            },
            {
              "internalType": "bool",
              "name": "battleActive",
              "type": "bool"
            }
          ],
          "internalType": "struct Arena.ArenaInfo",
          "name": "info",
          "type": "tuple"
        }
      ],
      "stateMutability": "view",
      "type": "function"
    },
    {
      "inputs": [],
      "name": "battleLengthBlocks",
      "outputs": [
        {
          "internalType": "uint256",
          "name": "",
          "type": "uint256"
        }
      ],
      "stateMutability": "view",
      "type": "function"
    },
    {
      "inputs": [],
      "name": "delayBattleBlocks",
      "outputs": [
        {
          "internalType": "uint256",
          "name": "",
          "type": "uint256"
        }
      ],
      "stateMutability": "view",
      "type": "function"
    },
    {
      "inputs": [
        {
          "internalType": "bool",
          "name": "keepGameOn",
          "type": "bool"
        }
      ],
      "name": "endGame",
      "outputs": [],
      "stateMutability": "nonpayable",
      "type": "function"
    },
    {
      "inputs": [],
      "name": "entryClosedBlock",
      "outputs": [
        {
          "internalType": "uint256",
          "name": "",
          "type": "uint256"
        }
      ],
      "stateMutability": "view",
      "type": "function"
    },
    {
      "inputs": [],
      "name": "entryOpen",
      "outputs": [
        {
          "internalType": "bool",
          "name": "",
          "type": "bool"
        }
      ],
      "stateMutability": "view",
      "type": "function"
    },
    {
      "inputs": [],
      "name": "entryOpenBlock",
      "outputs": [
        {
          "internalType": "uint256",
          "name": "",
          "type": "uint256"
        }
      ],
      "stateMutability": "view",
      "type": "function"
    },
    {
      "inputs": [],
      "name": "entryOpenBlocks",
      "outputs": [
        {
          "internalType": "uint256",
          "name": "",
          "type": "uint256"
        }
      ],
      "stateMutability": "view",
      "type": "function"
    },
    {
      "inputs": [],
      "name": "getBalance",
      "outputs": [
        {
          "internalType": "uint256",
          "name": "",
          "type": "uint256"
        }
      ],
      "stateMutability": "view",
      "type": "function"
    },
    {
      "inputs": [],
      "name": "getChampions",
      "outputs": [
        {
          "internalType": "uint256[]",
          "name": "",
          "type": "uint256[]"
        }
      ],
      "stateMutability": "view",
      "type": "function"
    },
    {
      "inputs": [],
      "name": "getWinners",
      "outputs": [
        {
          "internalType": "uint256[]",
          "name": "",
          "type": "uint256[]"
        }
      ],
      "stateMutability": "view",
      "type": "function"
    },
    {
      "inputs": [
        {
          "internalType": "uint256",
          "name": "_tokenId",
          "type": "uint256"
        }
      ],
      "name": "joinArena",
      "outputs": [],
      "stateMutability": "payable",
      "type": "function"
    },
    {
      "inputs": [
        {
          "internalType": "uint256[]",
          "name": "_tokenIds",
          "type": "uint256[]"
        }
      ],
      "name": "multiJoinArena",
      "outputs": [],
      "stateMutability": "payable",
      "type": "function"
    },
    {
      "inputs": [],
      "name": "myChampions",
      "outputs": [
        {
          "internalType": "uint256[]",
          "name": "",
          "type": "uint256[]"
        }
      ],
      "stateMutability": "view",
      "type": "function"
    },
    {
      "inputs": [],
      "name": "owner",
      "outputs": [
        {
          "internalType": "address",
          "name": "",
          "type": "address"
        }
      ],
      "stateMutability": "view",
      "type": "function"
    },
    {
      "inputs": [
        {
          "internalType": "address",
          "name": "_owner",
          "type": "address"
        }
      ],
      "name": "ownerChampions",
      "outputs": [
        {
          "internalType": "uint256[]",
          "name": "",
          "type": "uint256[]"
        }
      ],
      "stateMutability": "view",
      "type": "function"
    },
    {
      "inputs": [
        {
          "internalType": "uint256",
          "name": "amount",
          "type": "uint256"
        }
      ],
      "name": "ownerWithdraw",
      "outputs": [],
      "stateMutability": "nonpayable",
      "type": "function"
    },
    {
      "inputs": [],
      "name": "pricePerEnter",
      "outputs": [
        {
          "internalType": "uint256",
          "name": "",
          "type": "uint256"
        }
      ],
      "stateMutability": "view",
      "type": "function"
    },
    {
      "inputs": [],
      "name": "renounceOwnership",
      "outputs": [],
      "stateMutability": "nonpayable",
      "type": "function"
    },
    {
      "inputs": [],
      "name": "startGame",
      "outputs": [],
      "stateMutability": "nonpayable",
      "type": "function"
    },
    {
      "inputs": [
        {
          "internalType": "address",
          "name": "newOwner",
          "type": "address"
        }
      ],
      "name": "transferOwnership",
      "outputs": [],
      "stateMutability": "nonpayable",
      "type": "function"
    },
    {
      "inputs": [],
      "name": "turnOffGame",
      "outputs": [],
      "stateMutability": "nonpayable",
      "type": "function"
    },
    {
      "inputs": [],
      "name": "turnOnGame",
      "outputs": [],
      "stateMutability": "nonpayable",
      "type": "function"
    },
    {
      "inputs": [],
      "name": "withdraw",
      "outputs": [],
      "stateMutability": "nonpayable",
      "type": "function"
    },
    {
      "stateMutability": "payable",
      "type": "receive"
    }
  ],
  "bytecode": "0x60806040523480156200001157600080fd5b5060405162002e3c38038062002e3c83398181016040528101906200003791906200029d565b620000576200004b620000eb60201b60201c565b620000f360201b60201c565b620000a36040518060400160405280601d81526020017f4465706c6f79696e67204172656e6120436f6e74726163742061743a2000000081525030620001b760201b620017bc1760201c565b80600760006101000a81548173ffffffffffffffffffffffffffffffffffffffff021916908373ffffffffffffffffffffffffffffffffffffffff1602179055505062000400565b600033905090565b60008060009054906101000a900473ffffffffffffffffffffffffffffffffffffffff169050816000806101000a81548173ffffffffffffffffffffffffffffffffffffffff021916908373ffffffffffffffffffffffffffffffffffffffff1602179055508173ffffffffffffffffffffffffffffffffffffffff168173ffffffffffffffffffffffffffffffffffffffff167f8be0079c531659141344cd1fd0a4f28419497f9722a3daafe3b4186f6b6457e060405160405180910390a35050565b620002598282604051602401620001d09291906200031b565b6040516020818303038152906040527f319af333000000000000000000000000000000000000000000000000000000007bffffffffffffffffffffffffffffffffffffffffffffffffffffffff19166020820180517bffffffffffffffffffffffffffffffffffffffffffffffffffffffff83818316178352505050506200025d60201b60201c565b5050565b60008151905060006a636f6e736f6c652e6c6f679050602083016000808483855afa5050505050565b6000815190506200029781620003e6565b92915050565b600060208284031215620002b057600080fd5b6000620002c08482850162000286565b91505092915050565b620002d4816200036b565b82525050565b6000620002e7826200034f565b620002f381856200035a565b9350620003058185602086016200039f565b6200031081620003d5565b840191505092915050565b60006040820190508181036000830152620003378185620002da565b9050620003486020830184620002c9565b9392505050565b600081519050919050565b600082825260208201905092915050565b600062000378826200037f565b9050919050565b600073ffffffffffffffffffffffffffffffffffffffff82169050919050565b60005b83811015620003bf578082015181840152602081019050620003a2565b83811115620003cf576000848401525b50505050565b6000601f19601f8301169050919050565b620003f1816200036b565b8114620003fd57600080fd5b50565b612a2c80620004106000396000f3fe60806040526004361061014f5760003560e01c8063715018a6116100b6578063d65ab5f21161006f578063d65ab5f214610449578063df15c37e14610460578063e66f8a981461048b578063f2e45a4f146104b6578063f2fde38b146104e1578063f6b3a00a1461050a5761018f565b8063715018a61461035d5780638da5cb5b14610374578063ab9227901461039f578063b2f42584146103dc578063c57540b914610407578063c7a13c2a146104325761018f565b806339af9afe1161010857806339af9afe146102805780633ccfd60b1461029c57806344a242d9146102b3578063473e3ea4146102dc5780634c7bab2b1461030757806350c0eebf146103325761018f565b806312065fe0146101945780631773ccd5146101bf578063199761dc146101ea5780632e6a758f146102015780632e928c1d1461022c57806333f707d1146102575761018f565b3661018f577f88a5966d370b9919b20f3e2c13ff65706f196a4e32cc2c12bf57088f8852587433346040516101859291906123b1565b60405180910390a1005b600080fd5b3480156101a057600080fd5b506101a9610526565b6040516101b691906125c1565b60405180910390f35b3480156101cb57600080fd5b506101d461052e565b6040516101e191906125c1565b60405180910390f35b3480156101f657600080fd5b506101ff610533565b005b34801561020d57600080fd5b506102166105d3565b60405161022391906125c1565b60405180910390f35b34801561023857600080fd5b506102416105d9565b60405161024e91906123da565b60405180910390f35b34801561026357600080fd5b5061027e60048036038101906102799190611d55565b610631565b005b61029a60048036038101906102959190611ceb565b6106f7565b005b3480156102a857600080fd5b506102b16108ba565b005b3480156102bf57600080fd5b506102da60048036038101906102d59190611d2c565b61098d565b005b3480156102e857600080fd5b506102f1610d4e565b6040516102fe91906125c1565b60405180910390f35b34801561031357600080fd5b5061031c610d69565b60405161032991906125c1565b60405180910390f35b34801561033e57600080fd5b50610347610d7f565b60405161035491906125c1565b60405180910390f35b34801561036957600080fd5b50610372610d84565b005b34801561038057600080fd5b50610389610e0c565b6040516103969190612396565b60405180910390f35b3480156103ab57600080fd5b506103c660048036038101906103c19190611c99565b610e35565b6040516103d391906123da565b60405180910390f35b3480156103e857600080fd5b506103f16110e8565b6040516103fe91906123da565b60405180910390f35b34801561041357600080fd5b5061041c6110f8565b604051610429919061243a565b60405180910390f35b34801561043e57600080fd5b5061044761111b565b005b34801561045557600080fd5b5061045e6111b4565b005b34801561046c57600080fd5b5061047561129c565b60405161048291906123da565b60405180910390f35b34801561049757600080fd5b506104a06112f4565b6040516104ad91906125c1565b60405180910390f35b3480156104c257600080fd5b506104cb611300565b6040516104d891906125a5565b60405180910390f35b3480156104ed57600080fd5b5061050860048036038101906105039190611c99565b611461565b005b610524600480360381019061051f9190611d55565b611559565b005b600047905090565b604581565b61053b611858565b73ffffffffffffffffffffffffffffffffffffffff16610559610e0c565b73ffffffffffffffffffffffffffffffffffffffff16146105af576040517f08c379a00000000000000000000000000000000000000000000000000000000081526004016105a690612505565b60405180910390fd5b6001600560016101000a81548160ff02191690831515021790555043600481905550565b61106881565b6060600280548060200260200160405190810160405280929190818152602001828054801561062757602002820191906000526020600020905b815481526020019060010190808311610613575b5050505050905090565b610639611858565b73ffffffffffffffffffffffffffffffffffffffff16610657610e0c565b73ffffffffffffffffffffffffffffffffffffffff16146106ad576040517f08c379a00000000000000000000000000000000000000000000000000000000081526004016106a490612505565b60405180910390fd5b3373ffffffffffffffffffffffffffffffffffffffff166108fc829081150290604051600060405180830381858888f193505050501580156106f3573d6000803e3d6000fd5b5050565b600560019054906101000a900460ff16610746576040517f08c379a000000000000000000000000000000000000000000000000000000000815260040161073d90612565565b60405180910390fd5b61074e6110f8565b61078d576040517f08c379a0000000000000000000000000000000000000000000000000000000008152600401610784906124e5565b60405180910390fd5b6003815111156107d2576040517f08c379a00000000000000000000000000000000000000000000000000000000081526004016107c9906124a5565b60405180910390fd5b6000815167016345785d8a00006107e99190612742565b905080341461082d576040517f08c379a000000000000000000000000000000000000000000000000000000000815260040161082490612585565b60405180910390fd5b60005b82518110156108b5576002838281518110610874577f4e487b7100000000000000000000000000000000000000000000000000000000600052603260045260246000fd5b6020026020010151908060018154018082558091505060019003906000526020600020016000909190919091505580806108ad9061286f565b915050610830565b505050565b6000600660003373ffffffffffffffffffffffffffffffffffffffff1673ffffffffffffffffffffffffffffffffffffffff1681526020019081526020016000205490506000600660003373ffffffffffffffffffffffffffffffffffffffff1673ffffffffffffffffffffffffffffffffffffffff168152602001908152602001600020819055503373ffffffffffffffffffffffffffffffffffffffff166108fc829081150290604051600060405180830381858888f19350505050158015610989573d6000803e3d6000fd5b5050565b610995611858565b73ffffffffffffffffffffffffffffffffffffffff166109b3610e0c565b73ffffffffffffffffffffffffffffffffffffffff1614610a09576040517f08c379a0000000000000000000000000000000000000000000000000000000008152600401610a0090612505565b60405180910390fd5b600560019054906101000a900460ff16610a58576040517f08c379a0000000000000000000000000000000000000000000000000000000008152600401610a4f90612565565b60405180910390fd5b600560009054906101000a900460ff16610aa7576040517f08c379a0000000000000000000000000000000000000000000000000000000008152600401610a9e90612545565b60405180910390fd5b610aaf611860565b6001908054610abf929190611aba565b5060036000815480929190610ad39061286f565b9190505550436004819055506000600560006101000a81548160ff02191690831515021790555080600560016101000a81548160ff02191690831515021790555060026000610b229190611b0c565b600073a003ed3ffadf802abc181fb64951ef507c61f92390508073ffffffffffffffffffffffffffffffffffffffff166108fc610b5d61190f565b9081150290604051600060405180830381858888f19350505050158015610b88573d6000803e3d6000fd5b506000600180549050610b99611926565b610ba39190612711565b905060005b600180549050811015610d00576000600760009054906101000a900473ffffffffffffffffffffffffffffffffffffffff1673ffffffffffffffffffffffffffffffffffffffff1663c41a360a60018481548110610c2f577f4e487b7100000000000000000000000000000000000000000000000000000000600052603260045260246000fd5b90600052602060002001546040518263ffffffff1660e01b8152600401610c5691906125c1565b60206040518083038186803b158015610c6e57600080fd5b505afa158015610c82573d6000803e3d6000fd5b505050506040513d601f19601f82011682018060405250810190610ca69190611cc2565b905082600660008373ffffffffffffffffffffffffffffffffffffffff1673ffffffffffffffffffffffffffffffffffffffff16815260200190815260200160002081905550508080610cf89061286f565b915050610ba8565b507fbcd948267a7f53f8e3f4764b8710c5085d7f953886471b496b547004a1e8e6436001610d2c611926565b600280549050604051610d41939291906123fc565b60405180910390a1505050565b60006045610d5a610d69565b610d6491906126bb565b905090565b60006045600454610d7a91906126bb565b905090565b604581565b610d8c611858565b73ffffffffffffffffffffffffffffffffffffffff16610daa610e0c565b73ffffffffffffffffffffffffffffffffffffffff1614610e00576040517f08c379a0000000000000000000000000000000000000000000000000000000008152600401610df790612505565b60405180910390fd5b610e0a600061194f565b565b60008060009054906101000a900473ffffffffffffffffffffffffffffffffffffffff16905090565b60606000600280549050905060008167ffffffffffffffff811115610e83577f4e487b7100000000000000000000000000000000000000000000000000000000600052604160045260246000fd5b604051908082528060200260200182016040528015610eb15781602001602082028036833780820191505090505b5090506000805b8381101561108c578573ffffffffffffffffffffffffffffffffffffffff16600760009054906101000a900473ffffffffffffffffffffffffffffffffffffffff1673ffffffffffffffffffffffffffffffffffffffff1663c41a360a60028481548110610f4f577f4e487b7100000000000000000000000000000000000000000000000000000000600052603260045260246000fd5b90600052602060002001546040518263ffffffff1660e01b8152600401610f7691906125c1565b60206040518083038186803b158015610f8e57600080fd5b505afa158015610fa2573d6000803e3d6000fd5b505050506040513d601f19601f82011682018060405250810190610fc69190611cc2565b73ffffffffffffffffffffffffffffffffffffffff161415611079576002818154811061101c577f4e487b7100000000000000000000000000000000000000000000000000000000600052603260045260246000fd5b90600052602060002001548383806110339061286f565b94508151811061106c577f4e487b7100000000000000000000000000000000000000000000000000000000600052603260045260246000fd5b6020026020010181815250505b80806110849061286f565b915050610eb8565b5060028054806020026020016040519081016040528092919081815260200182805480156110d957602002820191906000526020600020905b8154815260200190600101908083116110c5575b50505050509350505050919050565b60606110f333610e35565b905090565b6000611102610d69565b431180156111165750611113610d4e565b43105b905090565b611123611858565b73ffffffffffffffffffffffffffffffffffffffff16611141610e0c565b73ffffffffffffffffffffffffffffffffffffffff1614611197576040517f08c379a000000000000000000000000000000000000000000000000000000000815260040161118e90612505565b60405180910390fd5b6000600560016101000a81548160ff021916908315150217905550565b6111bc611858565b73ffffffffffffffffffffffffffffffffffffffff166111da610e0c565b73ffffffffffffffffffffffffffffffffffffffff1614611230576040517f08c379a000000000000000000000000000000000000000000000000000000000815260040161122790612505565b60405180910390fd5b600560019054906101000a900460ff1661127f576040517f08c379a000000000000000000000000000000000000000000000000000000000815260040161127690612565565b60405180910390fd5b6001600560006101000a81548160ff021916908315150217905550565b606060018054806020026020016040519081016040528092919081815260200182805480156112ea57602002820191906000526020600020905b8154815260200190600101908083116112d6575b5050505050905090565b67016345785d8a000081565b611308611b2d565b60035481600001818152505061131c610d4e565b81604001818152505061132d610d69565b81602001818152505061133e610d4e565b816060018181525050611068816060015161135991906126bb565b816080018181525050600760009054906101000a900473ffffffffffffffffffffffffffffffffffffffff1673ffffffffffffffffffffffffffffffffffffffff1663efa92106306040518263ffffffff1660e01b81526004016113bd9190612396565b60206040518083038186803b1580156113d557600080fd5b505afa1580156113e9573d6000803e3d6000fd5b505050506040513d601f19601f8201168201806040525081019061140d9190611d7e565b8160a001818152505061141e6110f8565b8160e0019015159081151581525050600560009054906101000a900460ff1681610100019015159081151581525050611455610526565b8160c001818152505090565b611469611858565b73ffffffffffffffffffffffffffffffffffffffff16611487610e0c565b73ffffffffffffffffffffffffffffffffffffffff16146114dd576040517f08c379a00000000000000000000000000000000000000000000000000000000081526004016114d490612505565b60405180910390fd5b600073ffffffffffffffffffffffffffffffffffffffff168173ffffffffffffffffffffffffffffffffffffffff16141561154d576040517f08c379a000000000000000000000000000000000000000000000000000000000815260040161154490612485565b60405180910390fd5b6115568161194f565b50565b600560019054906101000a900460ff166115a8576040517f08c379a000000000000000000000000000000000000000000000000000000000815260040161159f90612565565b60405180910390fd5b6115b06110f8565b6115ef576040517f08c379a00000000000000000000000000000000000000000000000000000000081526004016115e6906124e5565b60405180910390fd5b6000600760009054906101000a900473ffffffffffffffffffffffffffffffffffffffff1673ffffffffffffffffffffffffffffffffffffffff1663c41a360a836040518263ffffffff1660e01b815260040161164c91906125c1565b60206040518083038186803b15801561166457600080fd5b505afa158015611678573d6000803e3d6000fd5b505050506040513d601f19601f8201168201806040525081019061169c9190611cc2565b90503373ffffffffffffffffffffffffffffffffffffffff168173ffffffffffffffffffffffffffffffffffffffff161461170c576040517f08c379a0000000000000000000000000000000000000000000000000000000008152600401611703906124c5565b60405180910390fd5b67016345785d8a00003414611756576040517f08c379a000000000000000000000000000000000000000000000000000000000815260040161174d90612525565b60405180910390fd5b60028290806001815401808255809150506001900390600052602060002001600090919091909150557f61f512ffb7b737e3687e8ad84012d5c4ce9b3067e5b7058a321c7d92b4e4cc6281836040516117b09291906123b1565b60405180910390a15050565b61185482826040516024016117d2929190612455565b6040516020818303038152906040527f319af333000000000000000000000000000000000000000000000000000000007bffffffffffffffffffffffffffffffffffffffffffffffffffffffff19166020820180517bffffffffffffffffffffffffffffffffffffffffffffffffffffffff8381831617835250505050611a13565b5050565b600033905090565b60008060006118756000600280549050611a3c565b905060008190505b82811015611905576001600282815481106118c1577f4e487b7100000000000000000000000000000000000000000000000000000000600052603260045260246000fd5b9060005260206000200154908060018154018082558091505060019003906000526020600020016000909190919091505580806118fd9061286f565b91505061187d565b5060019250505090565b600061192161191c610526565b611a98565b905090565b6000611938611933610526565b611a98565b611940610526565b61194a919061279c565b905090565b60008060009054906101000a900473ffffffffffffffffffffffffffffffffffffffff169050816000806101000a81548173ffffffffffffffffffffffffffffffffffffffff021916908373ffffffffffffffffffffffffffffffffffffffff1602179055508173ffffffffffffffffffffffffffffffffffffffff168173ffffffffffffffffffffffffffffffffffffffff167f8be0079c531659141344cd1fd0a4f28419497f9722a3daafe3b4186f6b6457e060405160405180910390a35050565b60008151905060006a636f6e736f6c652e6c6f679050602083016000808483855afa5050505050565b6000808383611a4b919061279c565b4244604051602001611a5e92919061236a565b6040516020818303038152906040528051906020012060001c611a8191906128c2565b90508381611a8f91906126bb565b91505092915050565b60006002606483611aa99190612711565b611ab39190612742565b9050919050565b828054828255906000526020600020908101928215611afb5760005260206000209182015b82811115611afa578254825591600101919060010190611adf565b5b509050611b089190611b7d565b5090565b5080546000825590600052602060002090810190611b2a9190611b7d565b50565b604051806101200160405280600081526020016000815260200160008152602001600081526020016000815260200160008152602001600081526020016000151581526020016000151581525090565b5b80821115611b96576000816000905550600101611b7e565b5090565b6000611bad611ba88461260d565b6125dc565b90508083825260208201905082856020860282011115611bcc57600080fd5b60005b85811015611bfc5781611be28882611c6f565b845260208401935060208301925050600181019050611bcf565b5050509392505050565b600081359050611c15816129b1565b92915050565b600081519050611c2a816129b1565b92915050565b600082601f830112611c4157600080fd5b8135611c51848260208601611b9a565b91505092915050565b600081359050611c69816129c8565b92915050565b600081359050611c7e816129df565b92915050565b600081519050611c93816129df565b92915050565b600060208284031215611cab57600080fd5b6000611cb984828501611c06565b91505092915050565b600060208284031215611cd457600080fd5b6000611ce284828501611c1b565b91505092915050565b600060208284031215611cfd57600080fd5b600082013567ffffffffffffffff811115611d1757600080fd5b611d2384828501611c30565b91505092915050565b600060208284031215611d3e57600080fd5b6000611d4c84828501611c5a565b91505092915050565b600060208284031215611d6757600080fd5b6000611d7584828501611c6f565b91505092915050565b600060208284031215611d9057600080fd5b6000611d9e84828501611c84565b91505092915050565b6000611db38383612335565b60208301905092915050565b611dc8816127da565b82525050565b6000611dd98261265e565b611de38185612699565b9350611dee83612639565b8060005b83811015611e1f578151611e068882611da7565b9750611e118361267f565b925050600181019050611df2565b5085935050505092915050565b6000611e3782612669565b611e418185612699565b9350611e4c83612649565b8060005b83811015611e8457611e6182612980565b611e6b8882611da7565b9750611e768361268c565b925050600181019050611e50565b5085935050505092915050565b611e9a816127ec565b82525050565b611ea9816127ec565b82525050565b6000611eba82612674565b611ec481856126aa565b9350611ed4818560208601612822565b611edd81612993565b840191505092915050565b6000611ef56026836126aa565b91507f4f776e61626c653a206e6577206f776e657220697320746865207a65726f206160008301527f64647265737300000000000000000000000000000000000000000000000000006020830152604082019050919050565b6000611f5b602e836126aa565b91507f546865206d6178696d756d206e756d626572206f66206368616d707320696e2060008301527f546865204172656e6120697320330000000000000000000000000000000000006020830152604082019050919050565b6000611fc16031836126aa565b91507f43616e6e6f7420656e7465722c2074686973206368616d70696f6e20646f657360008301527f6e27742062656c6f6e6720746f20796f750000000000000000000000000000006020830152604082019050919050565b60006120276021836126aa565b91507f496e76616c696420616374696f6e3a204172656e61206973206e6f74206f706560008301527f6e000000000000000000000000000000000000000000000000000000000000006020830152604082019050919050565b600061208d6020836126aa565b91507f4f776e61626c653a2063616c6c6572206973206e6f7420746865206f776e65726000830152602082019050919050565b60006120cd6023836126aa565b91507f596f75206e65656420746f2073656e6420302e3120457468657220746f20656e60008301527f74657200000000000000000000000000000000000000000000000000000000006020830152604082019050919050565b60006121336027836126aa565b91507f496e76616c69642043616c6c3a205468657265206973206e6f20626174746c6560008301527f20616374697665000000000000000000000000000000000000000000000000006020830152604082019050919050565b60006121996022836126aa565b91507f496e76616c696420616374696f6e3a2047616d65206973206e6f74206163746960008301527f76650000000000000000000000000000000000000000000000000000000000006020830152604082019050919050565b60006121ff604a836126aa565b91507f596f75206e65656420746f2073656e642074686520636f727265637420616d6f60008301527f756e74206f6620657468657220746f2065746e65723a20302e31202a206e756d60208301527f4368616d70696f6e733b000000000000000000000000000000000000000000006040830152606082019050919050565b610120820160008201516122956000850182612335565b5060208201516122a86020850182612335565b5060408201516122bb6040850182612335565b5060608201516122ce6060850182612335565b5060808201516122e16080850182612335565b5060a08201516122f460a0850182612335565b5060c082015161230760c0850182612335565b5060e082015161231a60e0850182611e91565b5061010082015161232f610100850182611e91565b50505050565b61233e81612818565b82525050565b61234d81612818565b82525050565b61236461235f82612818565b6128b8565b82525050565b60006123768285612353565b6020820191506123868284612353565b6020820191508190509392505050565b60006020820190506123ab6000830184611dbf565b92915050565b60006040820190506123c66000830185611dbf565b6123d36020830184612344565b9392505050565b600060208201905081810360008301526123f48184611dce565b905092915050565b600060608201905081810360008301526124168186611e2c565b90506124256020830185612344565b6124326040830184612344565b949350505050565b600060208201905061244f6000830184611ea0565b92915050565b6000604082019050818103600083015261246f8185611eaf565b905061247e6020830184611dbf565b9392505050565b6000602082019050818103600083015261249e81611ee8565b9050919050565b600060208201905081810360008301526124be81611f4e565b9050919050565b600060208201905081810360008301526124de81611fb4565b9050919050565b600060208201905081810360008301526124fe8161201a565b9050919050565b6000602082019050818103600083015261251e81612080565b9050919050565b6000602082019050818103600083015261253e816120c0565b9050919050565b6000602082019050818103600083015261255e81612126565b9050919050565b6000602082019050818103600083015261257e8161218c565b9050919050565b6000602082019050818103600083015261259e816121f2565b9050919050565b6000610120820190506125bb600083018461227e565b92915050565b60006020820190506125d66000830184612344565b92915050565b6000604051905081810181811067ffffffffffffffff8211171561260357612602612951565b5b8060405250919050565b600067ffffffffffffffff82111561262857612627612951565b5b602082029050602081019050919050565b6000819050602082019050919050565b60008190508160005260206000209050919050565b600081519050919050565b600081549050919050565b600081519050919050565b6000602082019050919050565b6000600182019050919050565b600082825260208201905092915050565b600082825260208201905092915050565b60006126c682612818565b91506126d183612818565b9250827fffffffffffffffffffffffffffffffffffffffffffffffffffffffffffffffff03821115612706576127056128f3565b5b828201905092915050565b600061271c82612818565b915061272783612818565b92508261273757612736612922565b5b828204905092915050565b600061274d82612818565b915061275883612818565b9250817fffffffffffffffffffffffffffffffffffffffffffffffffffffffffffffffff0483118215151615612791576127906128f3565b5b828202905092915050565b60006127a782612818565b91506127b283612818565b9250828210156127c5576127c46128f3565b5b828203905092915050565b6000819050919050565b60006127e5826127f8565b9050919050565b60008115159050919050565b600073ffffffffffffffffffffffffffffffffffffffff82169050919050565b6000819050919050565b60005b83811015612840578082015181840152602081019050612825565b8381111561284f576000848401525b50505050565b6000612868612863836129a4565b6127d0565b9050919050565b600061287a82612818565b91507fffffffffffffffffffffffffffffffffffffffffffffffffffffffffffffffff8214156128ad576128ac6128f3565b5b600182019050919050565b6000819050919050565b60006128cd82612818565b91506128d883612818565b9250826128e8576128e7612922565b5b828206905092915050565b7f4e487b7100000000000000000000000000000000000000000000000000000000600052601160045260246000fd5b7f4e487b7100000000000000000000000000000000000000000000000000000000600052601260045260246000fd5b7f4e487b7100000000000000000000000000000000000000000000000000000000600052604160045260246000fd5b600061298c8254612855565b9050919050565b6000601f19601f8301169050919050565b60008160001c9050919050565b6129ba816127da565b81146129c557600080fd5b50565b6129d1816127ec565b81146129dc57600080fd5b50565b6129e881612818565b81146129f357600080fd5b5056fea264697066735822122029324a34c40bb46a6839651456aa2d858082434c922364bb5fb827401590d14364736f6c63430008000033",
  "linkReferences": {},
  "deployedLinkReferences": {}
}