{
  "_format": "hh-sol-artifact-1",
  "contractName": "Camp",
  "sourceName": "contracts/Camp.sol",
  "abi": [
    {
      "inputs": [],
      "stateMutability": "nonpayable",
      "type": "constructor"
    },
    {
      "anonymous": false,
      "inputs": [
        {
          "indexed": true,
          "internalType": "address",
          "name": "previousOwner",
          "type": "address"
        },
        {
          "indexed": true,
          "internalType": "address",
          "name": "newOwner",
          "type": "address"
        }
      ],
      "name": "OwnershipTransferred",
      "type": "event"
    },
    {
      "inputs": [],
      "name": "DAILY_XP_RATE",
      "outputs": [
        {
          "internalType": "uint256",
          "name": "",
          "type": "uint256"
        }
      ],
      "stateMutability": "view",
      "type": "function"
    },
    {
      "inputs": [
        {
          "internalType": "uint256",
          "name": "",
          "type": "uint256"
        }
      ],
      "name": "camp",
      "outputs": [
        {
          "internalType": "uint256",
          "name": "tokenId",
          "type": "uint256"
        },
        {
          "internalType": "uint80",
          "name": "value",
          "type": "uint80"
        }
      ],
      "stateMutability": "view",
      "type": "function"
    },
    {
      "inputs": [
        {
          "internalType": "uint256",
          "name": "tokenId",
          "type": "uint256"
        }
      ],
      "name": "getTimeStaked",
      "outputs": [
        {
          "internalType": "uint80",
          "name": "",
          "type": "uint80"
        }
      ],
      "stateMutability": "nonpayable",
      "type": "function"
    },
    {
      "inputs": [],
      "name": "owner",
      "outputs": [
        {
          "internalType": "address",
          "name": "",
          "type": "address"
        }
      ],
      "stateMutability": "view",
      "type": "function"
    },
    {
      "inputs": [],
      "name": "renounceOwnership",
      "outputs": [],
      "stateMutability": "nonpayable",
      "type": "function"
    },
    {
      "inputs": [
        {
          "internalType": "uint256",
          "name": "tokenId",
          "type": "uint256"
        }
      ],
      "name": "stakeChampion",
      "outputs": [],
      "stateMutability": "nonpayable",
      "type": "function"
    },
    {
      "inputs": [
        {
          "internalType": "address",
          "name": "newOwner",
          "type": "address"
        }
      ],
      "name": "transferOwnership",
      "outputs": [],
      "stateMutability": "nonpayable",
      "type": "function"
    }
  ],
  "bytecode": "0x6080604052600060025534801561001557600080fd5b5061003261002761003760201b60201c565b61003f60201b60201c565b610103565b600033905090565b60008060009054906101000a900473ffffffffffffffffffffffffffffffffffffffff169050816000806101000a81548173ffffffffffffffffffffffffffffffffffffffff021916908373ffffffffffffffffffffffffffffffffffffffff1602179055508173ffffffffffffffffffffffffffffffffffffffff168173ffffffffffffffffffffffffffffffffffffffff167f8be0079c531659141344cd1fd0a4f28419497f9722a3daafe3b4186f6b6457e060405160405180910390a35050565b610800806101126000396000f3fe608060405234801561001057600080fd5b506004361061007d5760003560e01c8063715018a61161005b578063715018a6146100ec57806385f3be57146100f65780638da5cb5b14610127578063f2fde38b146101455761007d565b80633b795ae214610082578063507610c7146100b25780635d6db8ce146100d0575b600080fd5b61009c600480360381019061009791906104d7565b610161565b6040516100a99190610672565b60405180910390f35b6100ba6101ae565b6040516100c7919061062e565b60405180910390f35b6100ea60048036038101906100e591906104d7565b6101ba565b005b6100f46101d5565b005b610110600480360381019061010b91906104d7565b61025d565b60405161011e929190610649565b60405180910390f35b61012f610297565b60405161013c91906105d3565b60405180910390f35b61015f600480360381019061015a91906104ae565b6102c0565b005b60006001600083815260200190815260200160002060010160009054906101000a900469ffffffffffffffffffff1669ffffffffffffffffffff16426101a7919061069e565b9050919050565b67d02ab486cedc000081565b600260008154809291906101cd90610724565b919050555050565b6101dd6103b8565b73ffffffffffffffffffffffffffffffffffffffff166101fb610297565b73ffffffffffffffffffffffffffffffffffffffff1614610251576040517f08c379a00000000000000000000000000000000000000000000000000000000081526004016102489061060e565b60405180910390fd5b61025b60006103c0565b565b60016020528060005260406000206000915090508060000154908060010160009054906101000a900469ffffffffffffffffffff16905082565b60008060009054906101000a900473ffffffffffffffffffffffffffffffffffffffff16905090565b6102c86103b8565b73ffffffffffffffffffffffffffffffffffffffff166102e6610297565b73ffffffffffffffffffffffffffffffffffffffff161461033c576040517f08c379a00000000000000000000000000000000000000000000000000000000081526004016103339061060e565b60405180910390fd5b600073ffffffffffffffffffffffffffffffffffffffff168173ffffffffffffffffffffffffffffffffffffffff1614156103ac576040517f08c379a00000000000000000000000000000000000000000000000000000000081526004016103a3906105ee565b60405180910390fd5b6103b5816103c0565b50565b600033905090565b60008060009054906101000a900473ffffffffffffffffffffffffffffffffffffffff169050816000806101000a81548173ffffffffffffffffffffffffffffffffffffffff021916908373ffffffffffffffffffffffffffffffffffffffff1602179055508173ffffffffffffffffffffffffffffffffffffffff168173ffffffffffffffffffffffffffffffffffffffff167f8be0079c531659141344cd1fd0a4f28419497f9722a3daafe3b4186f6b6457e060405160405180910390a35050565b6000813590506104938161079c565b92915050565b6000813590506104a8816107b3565b92915050565b6000602082840312156104c057600080fd5b60006104ce84828501610484565b91505092915050565b6000602082840312156104e957600080fd5b60006104f784828501610499565b91505092915050565b610509816106d2565b82525050565b600061051c60268361068d565b91507f4f776e61626c653a206e6577206f776e657220697320746865207a65726f206160008301527f64647265737300000000000000000000000000000000000000000000000000006020830152604082019050919050565b600061058260208361068d565b91507f4f776e61626c653a2063616c6c6572206973206e6f7420746865206f776e65726000830152602082019050919050565b6105be81610704565b82525050565b6105cd8161070e565b82525050565b60006020820190506105e86000830184610500565b92915050565b600060208201905081810360008301526106078161050f565b9050919050565b6000602082019050818103600083015261062781610575565b9050919050565b600060208201905061064360008301846105b5565b92915050565b600060408201905061065e60008301856105b5565b61066b60208301846105c4565b9392505050565b600060208201905061068760008301846105c4565b92915050565b600082825260208201905092915050565b60006106a982610704565b91506106b483610704565b9250828210156106c7576106c661076d565b5b828203905092915050565b60006106dd826106e4565b9050919050565b600073ffffffffffffffffffffffffffffffffffffffff82169050919050565b6000819050919050565b600069ffffffffffffffffffff82169050919050565b600061072f82610704565b91507fffffffffffffffffffffffffffffffffffffffffffffffffffffffffffffffff8214156107625761076161076d565b5b600182019050919050565b7f4e487b7100000000000000000000000000000000000000000000000000000000600052601160045260246000fd5b6107a5816106d2565b81146107b057600080fd5b50565b6107bc81610704565b81146107c757600080fd5b5056fea2646970667358221220b8bbb62021e8e5d9d9543504c81fff98df4b52fe12e169683525cafb7a34582d64736f6c63430008000033",
  "linkReferences": {},
  "deployedLinkReferences": {}
}