{
  "_format": "hh-sol-artifact-1",
  "contractName": "Champion",
  "sourceName": "contracts/Champion.sol",
  "abi": [
    {
      "inputs": [],
      "stateMutability": "nonpayable",
      "type": "constructor"
    },
    {
      "anonymous": false,
      "inputs": [
        {
          "indexed": true,
          "internalType": "address",
          "name": "owner",
          "type": "address"
        },
        {
          "indexed": true,
          "internalType": "address",
          "name": "approved",
          "type": "address"
        },
        {
          "indexed": true,
          "internalType": "uint256",
          "name": "tokenId",
          "type": "uint256"
        }
      ],
      "name": "Approval",
      "type": "event"
    },
    {
      "anonymous": false,
      "inputs": [
        {
          "indexed": true,
          "internalType": "address",
          "name": "owner",
          "type": "address"
        },
        {
          "indexed": true,
          "internalType": "address",
          "name": "operator",
          "type": "address"
        },
        {
          "indexed": false,
          "internalType": "bool",
          "name": "approved",
          "type": "bool"
        }
      ],
      "name": "ApprovalForAll",
      "type": "event"
    },
    {
      "anonymous": false,
      "inputs": [
        {
          "indexed": true,
          "internalType": "address",
          "name": "previousOwner",
          "type": "address"
        },
        {
          "indexed": true,
          "internalType": "address",
          "name": "newOwner",
          "type": "address"
        }
      ],
      "name": "OwnershipTransferred",
      "type": "event"
    },
    {
      "anonymous": false,
      "inputs": [
        {
          "indexed": true,
          "internalType": "address",
          "name": "from",
          "type": "address"
        },
        {
          "indexed": true,
          "internalType": "address",
          "name": "to",
          "type": "address"
        },
        {
          "indexed": true,
          "internalType": "uint256",
          "name": "tokenId",
          "type": "uint256"
        }
      ],
      "name": "Transfer",
      "type": "event"
    },
    {
      "inputs": [
        {
          "internalType": "address",
          "name": "to",
          "type": "address"
        },
        {
          "internalType": "uint256",
          "name": "tokenId",
          "type": "uint256"
        }
      ],
      "name": "approve",
      "outputs": [],
      "stateMutability": "nonpayable",
      "type": "function"
    },
    {
      "inputs": [
        {
          "internalType": "address",
          "name": "owner",
          "type": "address"
        }
      ],
      "name": "balanceOf",
      "outputs": [
        {
          "internalType": "uint256",
          "name": "",
          "type": "uint256"
        }
      ],
      "stateMutability": "view",
      "type": "function"
    },
    {
      "inputs": [
        {
          "internalType": "uint256",
          "name": "",
          "type": "uint256"
        }
      ],
      "name": "championToOwner",
      "outputs": [
        {
          "internalType": "address",
          "name": "",
          "type": "address"
        }
      ],
      "stateMutability": "view",
      "type": "function"
    },
    {
      "inputs": [
        {
          "internalType": "uint256",
          "name": "",
          "type": "uint256"
        }
      ],
      "name": "champions",
      "outputs": [
        {
          "internalType": "uint256",
          "name": "id",
          "type": "uint256"
        },
        {
          "internalType": "uint256",
          "name": "token",
          "type": "uint256"
        },
        {
          "internalType": "uint256",
          "name": "numWins",
          "type": "uint256"
        },
        {
          "internalType": "uint256",
          "name": "level",
          "type": "uint256"
        },
        {
          "internalType": "string",
          "name": "imageURI",
          "type": "string"
        }
      ],
      "stateMutability": "view",
      "type": "function"
    },
    {
      "inputs": [],
      "name": "createRandomChampion",
      "outputs": [],
      "stateMutability": "nonpayable",
      "type": "function"
    },
    {
      "inputs": [
        {
          "internalType": "uint256",
          "name": "tokenId",
          "type": "uint256"
        }
      ],
      "name": "getApproved",
      "outputs": [
        {
          "internalType": "address",
          "name": "",
          "type": "address"
        }
      ],
      "stateMutability": "view",
      "type": "function"
    },
    {
      "inputs": [
        {
          "internalType": "address",
          "name": "_owner",
          "type": "address"
        }
      ],
      "name": "getChampionCount",
      "outputs": [
        {
          "internalType": "uint256",
          "name": "",
          "type": "uint256"
        }
      ],
      "stateMutability": "view",
      "type": "function"
    },
    {
      "inputs": [
        {
          "internalType": "uint256",
          "name": "_tokenId",
          "type": "uint256"
        }
      ],
      "name": "getChampionDetails",
      "outputs": [
        {
          "internalType": "uint256",
          "name": "",
          "type": "uint256"
        },
        {
          "internalType": "uint256",
          "name": "",
          "type": "uint256"
        },
        {
          "internalType": "uint256",
          "name": "",
          "type": "uint256"
        },
        {
          "internalType": "uint256",
          "name": "",
          "type": "uint256"
        }
      ],
      "stateMutability": "view",
      "type": "function"
    },
    {
      "inputs": [
        {
          "internalType": "uint256",
          "name": "_tokenId",
          "type": "uint256"
        }
      ],
      "name": "getOwner",
      "outputs": [
        {
          "internalType": "address",
          "name": "",
          "type": "address"
        }
      ],
      "stateMutability": "view",
      "type": "function"
    },
    {
      "inputs": [
        {
          "internalType": "address",
          "name": "owner",
          "type": "address"
        },
        {
          "internalType": "address",
          "name": "operator",
          "type": "address"
        }
      ],
      "name": "isApprovedForAll",
      "outputs": [
        {
          "internalType": "bool",
          "name": "",
          "type": "bool"
        }
      ],
      "stateMutability": "view",
      "type": "function"
    },
    {
      "inputs": [
        {
          "internalType": "uint256",
          "name": "_id",
          "type": "uint256"
        }
      ],
      "name": "mintChampion",
      "outputs": [],
      "stateMutability": "nonpayable",
      "type": "function"
    },
    {
      "inputs": [],
      "name": "name",
      "outputs": [
        {
          "internalType": "string",
          "name": "",
          "type": "string"
        }
      ],
      "stateMutability": "view",
      "type": "function"
    },
    {
      "inputs": [],
      "name": "owner",
      "outputs": [
        {
          "internalType": "address",
          "name": "",
          "type": "address"
        }
      ],
      "stateMutability": "view",
      "type": "function"
    },
    {
      "inputs": [
        {
          "internalType": "uint256",
          "name": "tokenId",
          "type": "uint256"
        }
      ],
      "name": "ownerOf",
      "outputs": [
        {
          "internalType": "address",
          "name": "",
          "type": "address"
        }
      ],
      "stateMutability": "view",
      "type": "function"
    },
    {
      "inputs": [],
      "name": "renounceOwnership",
      "outputs": [],
      "stateMutability": "nonpayable",
      "type": "function"
    },
    {
      "inputs": [
        {
          "internalType": "address",
          "name": "from",
          "type": "address"
        },
        {
          "internalType": "address",
          "name": "to",
          "type": "address"
        },
        {
          "internalType": "uint256",
          "name": "tokenId",
          "type": "uint256"
        }
      ],
      "name": "safeTransferFrom",
      "outputs": [],
      "stateMutability": "nonpayable",
      "type": "function"
    },
    {
      "inputs": [
        {
          "internalType": "address",
          "name": "from",
          "type": "address"
        },
        {
          "internalType": "address",
          "name": "to",
          "type": "address"
        },
        {
          "internalType": "uint256",
          "name": "tokenId",
          "type": "uint256"
        },
        {
          "internalType": "bytes",
          "name": "_data",
          "type": "bytes"
        }
      ],
      "name": "safeTransferFrom",
      "outputs": [],
      "stateMutability": "nonpayable",
      "type": "function"
    },
    {
      "inputs": [
        {
          "internalType": "address",
          "name": "operator",
          "type": "address"
        },
        {
          "internalType": "bool",
          "name": "approved",
          "type": "bool"
        }
      ],
      "name": "setApprovalForAll",
      "outputs": [],
      "stateMutability": "nonpayable",
      "type": "function"
    },
    {
      "inputs": [
        {
          "internalType": "bytes4",
          "name": "interfaceId",
          "type": "bytes4"
        }
      ],
      "name": "supportsInterface",
      "outputs": [
        {
          "internalType": "bool",
          "name": "",
          "type": "bool"
        }
      ],
      "stateMutability": "view",
      "type": "function"
    },
    {
      "inputs": [],
      "name": "symbol",
      "outputs": [
        {
          "internalType": "string",
          "name": "",
          "type": "string"
        }
      ],
      "stateMutability": "view",
      "type": "function"
    },
    {
      "inputs": [
        {
          "internalType": "uint256",
          "name": "",
          "type": "uint256"
        }
      ],
      "name": "tokenToChampion",
      "outputs": [
        {
          "internalType": "uint256",
          "name": "id",
          "type": "uint256"
        },
        {
          "internalType": "uint256",
          "name": "token",
          "type": "uint256"
        },
        {
          "internalType": "uint256",
          "name": "numWins",
          "type": "uint256"
        },
        {
          "internalType": "uint256",
          "name": "level",
          "type": "uint256"
        },
        {
          "internalType": "string",
          "name": "imageURI",
          "type": "string"
        }
      ],
      "stateMutability": "view",
      "type": "function"
    },
    {
      "inputs": [
        {
          "internalType": "uint256",
          "name": "_tokenId",
          "type": "uint256"
        }
      ],
      "name": "tokenURI",
      "outputs": [
        {
          "internalType": "string",
          "name": "",
          "type": "string"
        }
      ],
      "stateMutability": "view",
      "type": "function"
    },
    {
      "inputs": [
        {
          "internalType": "address",
          "name": "from",
          "type": "address"
        },
        {
          "internalType": "address",
          "name": "to",
          "type": "address"
        },
        {
          "internalType": "uint256",
          "name": "tokenId",
          "type": "uint256"
        }
      ],
      "name": "transferFrom",
      "outputs": [],
      "stateMutability": "nonpayable",
      "type": "function"
    },
    {
      "inputs": [
        {
          "internalType": "address",
          "name": "newOwner",
          "type": "address"
        }
      ],
      "name": "transferOwnership",
      "outputs": [],
      "stateMutability": "nonpayable",
      "type": "function"
    }
  ],
  "bytecode": "0x60806040526008600955600954600a6200001a919062000462565b600a553480156200002a57600080fd5b506040518060400160405280600981526020017f4368616d70696f6e7300000000000000000000000000000000000000000000008152506040518060400160405280600581526020017f4348414d500000000000000000000000000000000000000000000000000000008152508160009080519060200190620000af929190620002d6565b508060019080519060200190620000c8929190620002d6565b505050620000eb620000df6200013c60201b60201c565b6200014460201b60201c565b620001366040518060400160405280600781526020017f776f726b696e67000000000000000000000000000000000000000000000000008152506200020a60201b620013541760201c565b62000691565b600033905090565b6000600760009054906101000a900473ffffffffffffffffffffffffffffffffffffffff16905081600760006101000a81548173ffffffffffffffffffffffffffffffffffffffff021916908373ffffffffffffffffffffffffffffffffffffffff1602179055508173ffffffffffffffffffffffffffffffffffffffff168173ffffffffffffffffffffffffffffffffffffffff167f8be0079c531659141344cd1fd0a4f28419497f9722a3daafe3b4186f6b6457e060405160405180910390a35050565b620002aa81604051602401620002219190620003c7565b6040516020818303038152906040527f41304fac000000000000000000000000000000000000000000000000000000007bffffffffffffffffffffffffffffffffffffffffffffffffffffffff19166020820180517bffffffffffffffffffffffffffffffffffffffffffffffffffffffff8381831617835250505050620002ad60201b60201c565b50565b60008151905060006a636f6e736f6c652e6c6f679050602083016000808483855afa5050505050565b828054620002e490620005df565b90600052602060002090601f01602090048101928262000308576000855562000354565b82601f106200032357805160ff191683800117855562000354565b8280016001018555821562000354579182015b828111156200035357825182559160200191906001019062000336565b5b50905062000363919062000367565b5090565b5b808211156200038257600081600090555060010162000368565b5090565b60006200039382620003eb565b6200039f8185620003f6565b9350620003b1818560208601620005a9565b620003bc8162000673565b840191505092915050565b60006020820190508181036000830152620003e3818462000386565b905092915050565b600081519050919050565b600082825260208201905092915050565b6000808291508390505b6001851115620004595780860481111562000431576200043062000615565b5b6001851615620004415780820291505b8081029050620004518562000684565b945062000411565b94509492505050565b60006200046f826200059f565b91506200047c836200059f565b9250620004ab7fffffffffffffffffffffffffffffffffffffffffffffffffffffffffffffffff8484620004b3565b905092915050565b600082620004c5576001905062000598565b81620004d5576000905062000598565b8160018114620004ee5760028114620004f9576200052f565b600191505062000598565b60ff8411156200050e576200050d62000615565b5b8360020a91508482111562000528576200052762000615565b5b5062000598565b5060208310610133831016604e8410600b8410161715620005695782820a90508381111562000563576200056262000615565b5b62000598565b62000578848484600162000407565b9250905081840481111562000592576200059162000615565b5b81810290505b9392505050565b6000819050919050565b60005b83811015620005c9578082015181840152602081019050620005ac565b83811115620005d9576000848401525b50505050565b60006002820490506001821680620005f857607f821691505b602082108114156200060f576200060e62000644565b5b50919050565b7f4e487b7100000000000000000000000000000000000000000000000000000000600052601160045260246000fd5b7f4e487b7100000000000000000000000000000000000000000000000000000000600052602260045260246000fd5b6000601f19601f8301169050919050565b60008160011c9050919050565b6139c680620006a16000396000f3fe608060405234801561001057600080fd5b50600436106101585760003560e01c806395d89b41116100c3578063c853e5271161007c578063c853e527146103ca578063c87b56dd146103fa578063d0bbef7a1461042a578063e985e9c51461045e578063efa921061461048e578063f2fde38b146104be57610158565b806395d89b41146102dd5780639b509d13146102fb578063a22cb4651461032f578063b88d4fde1461034b578063c3e04bf014610367578063c41a360a1461039a57610158565b80633551069811610115578063355106981461022f57806342842e0e146102395780636352211e1461025557806370a0823114610285578063715018a6146102b55780638da5cb5b146102bf57610158565b806301ffc9a71461015d57806302531c4a1461018d57806306fdde03146101a9578063081812fc146101c7578063095ea7b3146101f757806323b872dd14610213575b600080fd5b61017760048036038101906101729190612659565b6104da565b60405161018491906131a0565b60405180910390f35b6101a760048036038101906101a291906126ab565b6105bc565b005b6101b1610725565b6040516101be91906131bb565b60405180910390f35b6101e160048036038101906101dc91906126ab565b6107b7565b6040516101ee9190613139565b60405180910390f35b610211600480360381019061020c919061261d565b61083c565b005b61022d60048036038101906102289190612517565b610954565b005b6102376109b4565b005b610253600480360381019061024e9190612517565b6109cc565b005b61026f600480360381019061026a91906126ab565b6109ec565b60405161027c9190613139565b60405180910390f35b61029f600480360381019061029a91906124b2565b610a9e565b6040516102ac91906133bd565b60405180910390f35b6102bd610b56565b005b6102c7610bde565b6040516102d49190613139565b60405180910390f35b6102e5610c08565b6040516102f291906131bb565b60405180910390f35b610315600480360381019061031091906126ab565b610c9a565b60405161032695949392919061341d565b60405180910390f35b610349600480360381019061034491906125e1565b610d58565b005b61036560048036038101906103609190612566565b610d6e565b005b610381600480360381019061037c91906126ab565b610dd0565b60405161039194939291906133d8565b60405180910390f35b6103b460048036038101906103af91906126ab565b610ed6565b6040516103c19190613139565b60405180910390f35b6103e460048036038101906103df91906126ab565b610f13565b6040516103f19190613139565b60405180910390f35b610414600480360381019061040f91906126ab565b610f46565b60405161042191906131bb565b60405180910390f35b610444600480360381019061043f91906126ab565b6110b1565b60405161045595949392919061341d565b60405180910390f35b610478600480360381019061047391906124db565b61117f565b60405161048591906131a0565b60405180910390f35b6104a860048036038101906104a391906124b2565b611213565b6040516104b591906133bd565b60405180910390f35b6104d860048036038101906104d391906124b2565b61125c565b005b60007f80ac58cd000000000000000000000000000000000000000000000000000000007bffffffffffffffffffffffffffffffffffffffffffffffffffffffff1916827bffffffffffffffffffffffffffffffffffffffffffffffffffffffff191614806105a557507f5b5e139f000000000000000000000000000000000000000000000000000000007bffffffffffffffffffffffffffffffffffffffffffffffffffffffff1916827bffffffffffffffffffffffffffffffffffffffffffffffffffffffff1916145b806105b557506105b4826113ed565b5b9050919050565b60006105c86008611457565b90506105d43382611465565b6040518060a0016040528083815260200182815260200160008152602001600181526020016040518060c00160405280608b81526020016138c6608b9139815250600c600083815260200190815260200160002060008201518160000155602082015181600101556040820151816002015560608201518160030155608082015181600401908051906020019061066c92919061233e565b5090505033600d600083815260200190815260200160002060006101000a81548173ffffffffffffffffffffffffffffffffffffffff021916908373ffffffffffffffffffffffffffffffffffffffff160217905550600e60003373ffffffffffffffffffffffffffffffffffffffff1673ffffffffffffffffffffffffffffffffffffffff168152602001908152602001600020600081548092919061071290613718565b91905055506107216008611483565b5050565b606060008054610734906136e6565b80601f0160208091040260200160405190810160405280929190818152602001828054610760906136e6565b80156107ad5780601f10610782576101008083540402835291602001916107ad565b820191906000526020600020905b81548152906001019060200180831161079057829003601f168201915b5050505050905090565b60006107c282611499565b610801576040517f08c379a00000000000000000000000000000000000000000000000000000000081526004016107f89061331d565b60405180910390fd5b6004600083815260200190815260200160002060009054906101000a900473ffffffffffffffffffffffffffffffffffffffff169050919050565b6000610847826109ec565b90508073ffffffffffffffffffffffffffffffffffffffff168373ffffffffffffffffffffffffffffffffffffffff1614156108b8576040517f08c379a00000000000000000000000000000000000000000000000000000000081526004016108af9061337d565b60405180910390fd5b8073ffffffffffffffffffffffffffffffffffffffff166108d7611505565b73ffffffffffffffffffffffffffffffffffffffff161480610906575061090581610900611505565b61117f565b5b610945576040517f08c379a000000000000000000000000000000000000000000000000000000000815260040161093c9061329d565b60405180910390fd5b61094f838361150d565b505050565b61096561095f611505565b826115c6565b6109a4576040517f08c379a000000000000000000000000000000000000000000000000000000000815260040161099b9061339d565b60405180910390fd5b6109af8383836116a4565b505050565b60006109be611900565b90506109c9816105bc565b50565b6109e783838360405180602001604052806000815250610d6e565b505050565b6000806002600084815260200190815260200160002060009054906101000a900473ffffffffffffffffffffffffffffffffffffffff169050600073ffffffffffffffffffffffffffffffffffffffff168173ffffffffffffffffffffffffffffffffffffffff161415610a95576040517f08c379a0000000000000000000000000000000000000000000000000000000008152600401610a8c906132dd565b60405180910390fd5b80915050919050565b60008073ffffffffffffffffffffffffffffffffffffffff168273ffffffffffffffffffffffffffffffffffffffff161415610b0f576040517f08c379a0000000000000000000000000000000000000000000000000000000008152600401610b06906132bd565b60405180910390fd5b600360008373ffffffffffffffffffffffffffffffffffffffff1673ffffffffffffffffffffffffffffffffffffffff168152602001908152602001600020549050919050565b610b5e611505565b73ffffffffffffffffffffffffffffffffffffffff16610b7c610bde565b73ffffffffffffffffffffffffffffffffffffffff1614610bd2576040517f08c379a0000000000000000000000000000000000000000000000000000000008152600401610bc99061333d565b60405180910390fd5b610bdc6000611943565b565b6000600760009054906101000a900473ffffffffffffffffffffffffffffffffffffffff16905090565b606060018054610c17906136e6565b80601f0160208091040260200160405190810160405280929190818152602001828054610c43906136e6565b8015610c905780601f10610c6557610100808354040283529160200191610c90565b820191906000526020600020905b815481529060010190602001808311610c7357829003601f168201915b5050505050905090565b600c602052806000526040600020600091509050806000015490806001015490806002015490806003015490806004018054610cd5906136e6565b80601f0160208091040260200160405190810160405280929190818152602001828054610d01906136e6565b8015610d4e5780601f10610d2357610100808354040283529160200191610d4e565b820191906000526020600020905b815481529060010190602001808311610d3157829003601f168201915b5050505050905085565b610d6a610d63611505565b8383611a09565b5050565b610d7f610d79611505565b836115c6565b610dbe576040517f08c379a0000000000000000000000000000000000000000000000000000000008152600401610db59061339d565b60405180910390fd5b610dca84848484611b76565b50505050565b6000806000806000600c60008781526020019081526020016000206040518060a001604052908160008201548152602001600182015481526020016002820154815260200160038201548152602001600482018054610e2e906136e6565b80601f0160208091040260200160405190810160405280929190818152602001828054610e5a906136e6565b8015610ea75780601f10610e7c57610100808354040283529160200191610ea7565b820191906000526020600020905b815481529060010190602001808311610e8a57829003601f168201915b505050505081525050905080602001518160000151826040015183606001519450945094509450509193509193565b6000600d600083815260200190815260200160002060009054906101000a900473ffffffffffffffffffffffffffffffffffffffff169050919050565b600d6020528060005260406000206000915054906101000a900473ffffffffffffffffffffffffffffffffffffffff1681565b60606000600c60008481526020019081526020016000206040518060a001604052908160008201548152602001600182015481526020016002820154815260200160038201548152602001600482018054610fa0906136e6565b80601f0160208091040260200160405190810160405280929190818152602001828054610fcc906136e6565b80156110195780601f10610fee57610100808354040283529160200191611019565b820191906000526020600020905b815481529060010190602001808311610ffc57829003601f168201915b5050505050815250509050600061108061103285611bd2565b61103f8460400151611bd2565b61104c8560600151611bd2565b6110598660000151611bd2565b60405160200161106c949392919061305b565b604051602081830303815290604052611d7f565b905060008160405160200161109591906130fc565b6040516020818303038152906040529050809350505050919050565b600b81815481106110c157600080fd5b90600052602060002090600502016000915090508060000154908060010154908060020154908060030154908060040180546110fc906136e6565b80601f0160208091040260200160405190810160405280929190818152602001828054611128906136e6565b80156111755780601f1061114a57610100808354040283529160200191611175565b820191906000526020600020905b81548152906001019060200180831161115857829003601f168201915b5050505050905085565b6000600560008473ffffffffffffffffffffffffffffffffffffffff1673ffffffffffffffffffffffffffffffffffffffff16815260200190815260200160002060008373ffffffffffffffffffffffffffffffffffffffff1673ffffffffffffffffffffffffffffffffffffffff16815260200190815260200160002060009054906101000a900460ff16905092915050565b6000600e60008373ffffffffffffffffffffffffffffffffffffffff1673ffffffffffffffffffffffffffffffffffffffff168152602001908152602001600020549050919050565b611264611505565b73ffffffffffffffffffffffffffffffffffffffff16611282610bde565b73ffffffffffffffffffffffffffffffffffffffff16146112d8576040517f08c379a00000000000000000000000000000000000000000000000000000000081526004016112cf9061333d565b60405180910390fd5b600073ffffffffffffffffffffffffffffffffffffffff168173ffffffffffffffffffffffffffffffffffffffff161415611348576040517f08c379a000000000000000000000000000000000000000000000000000000000815260040161133f906131fd565b60405180910390fd5b61135181611943565b50565b6113ea8160405160240161136891906131bb565b6040516020818303038152906040527f41304fac000000000000000000000000000000000000000000000000000000007bffffffffffffffffffffffffffffffffffffffffffffffffffffffff19166020820180517bffffffffffffffffffffffffffffffffffffffffffffffffffffffff8381831617835250505050611f3d565b50565b60007f01ffc9a7000000000000000000000000000000000000000000000000000000007bffffffffffffffffffffffffffffffffffffffffffffffffffffffff1916827bffffffffffffffffffffffffffffffffffffffffffffffffffffffff1916149050919050565b600081600001549050919050565b61147f828260405180602001604052806000815250611f66565b5050565b6001816000016000828254019250508190555050565b60008073ffffffffffffffffffffffffffffffffffffffff166002600084815260200190815260200160002060009054906101000a900473ffffffffffffffffffffffffffffffffffffffff1673ffffffffffffffffffffffffffffffffffffffff1614159050919050565b600033905090565b816004600083815260200190815260200160002060006101000a81548173ffffffffffffffffffffffffffffffffffffffff021916908373ffffffffffffffffffffffffffffffffffffffff160217905550808273ffffffffffffffffffffffffffffffffffffffff16611580836109ec565b73ffffffffffffffffffffffffffffffffffffffff167f8c5be1e5ebec7d5bd14f71427d1e84f3dd0314c0f7b2291e5b200ac8c7c3b92560405160405180910390a45050565b60006115d182611499565b611610576040517f08c379a00000000000000000000000000000000000000000000000000000000081526004016116079061327d565b60405180910390fd5b600061161b836109ec565b90508073ffffffffffffffffffffffffffffffffffffffff168473ffffffffffffffffffffffffffffffffffffffff16148061168a57508373ffffffffffffffffffffffffffffffffffffffff16611672846107b7565b73ffffffffffffffffffffffffffffffffffffffff16145b8061169b575061169a818561117f565b5b91505092915050565b8273ffffffffffffffffffffffffffffffffffffffff166116c4826109ec565b73ffffffffffffffffffffffffffffffffffffffff161461171a576040517f08c379a00000000000000000000000000000000000000000000000000000000081526004016117119061335d565b60405180910390fd5b600073ffffffffffffffffffffffffffffffffffffffff168273ffffffffffffffffffffffffffffffffffffffff16141561178a576040517f08c379a00000000000000000000000000000000000000000000000000000000081526004016117819061323d565b60405180910390fd5b611795838383611fc1565b6117a060008261150d565b6001600360008573ffffffffffffffffffffffffffffffffffffffff1673ffffffffffffffffffffffffffffffffffffffff16815260200190815260200160002060008282546117f091906135fc565b925050819055506001600360008473ffffffffffffffffffffffffffffffffffffffff1673ffffffffffffffffffffffffffffffffffffffff1681526020019081526020016000206000828254611847919061351b565b92505081905550816002600083815260200190815260200160002060006101000a81548173ffffffffffffffffffffffffffffffffffffffff021916908373ffffffffffffffffffffffffffffffffffffffff160217905550808273ffffffffffffffffffffffffffffffffffffffff168473ffffffffffffffffffffffffffffffffffffffff167fddf252ad1be2c89b69c2b068fc378daa952ba7f163c4a11628f55a4df523b3ef60405160405180910390a4505050565b60008042604051602001611914919061311e565b6040516020818303038152906040528051906020012060001c9050600a548161193d919061376b565b91505090565b6000600760009054906101000a900473ffffffffffffffffffffffffffffffffffffffff16905081600760006101000a81548173ffffffffffffffffffffffffffffffffffffffff021916908373ffffffffffffffffffffffffffffffffffffffff1602179055508173ffffffffffffffffffffffffffffffffffffffff168173ffffffffffffffffffffffffffffffffffffffff167f8be0079c531659141344cd1fd0a4f28419497f9722a3daafe3b4186f6b6457e060405160405180910390a35050565b8173ffffffffffffffffffffffffffffffffffffffff168373ffffffffffffffffffffffffffffffffffffffff161415611a78576040517f08c379a0000000000000000000000000000000000000000000000000000000008152600401611a6f9061325d565b60405180910390fd5b80600560008573ffffffffffffffffffffffffffffffffffffffff1673ffffffffffffffffffffffffffffffffffffffff16815260200190815260200160002060008473ffffffffffffffffffffffffffffffffffffffff1673ffffffffffffffffffffffffffffffffffffffff16815260200190815260200160002060006101000a81548160ff0219169083151502179055508173ffffffffffffffffffffffffffffffffffffffff168373ffffffffffffffffffffffffffffffffffffffff167f17307eab39ab6107e8899845ad3d59bd9653f200f220920489ca2b5937696c3183604051611b6991906131a0565b60405180910390a3505050565b611b818484846116a4565b611b8d84848484611fc6565b611bcc576040517f08c379a0000000000000000000000000000000000000000000000000000000008152600401611bc3906131dd565b60405180910390fd5b50505050565b60606000821415611c1a576040518060400160405280600181526020017f30000000000000000000000000000000000000000000000000000000000000008152509050611d7a565b600082905060005b60008214611c4c578080611c3590613718565b915050600a82611c459190613571565b9150611c22565b60008167ffffffffffffffff811115611c8e577f4e487b7100000000000000000000000000000000000000000000000000000000600052604160045260246000fd5b6040519080825280601f01601f191660200182016040528015611cc05781602001600182028036833780820191505090505b5090505b60008514611d7357600182611cd991906135fc565b9150600a85611ce8919061376b565b6030611cf4919061351b565b60f81b818381518110611d30577f4e487b7100000000000000000000000000000000000000000000000000000000600052603260045260246000fd5b60200101907effffffffffffffffffffffffffffffffffffffffffffffffffffffffffffff1916908160001a905350600a85611d6c9190613571565b9450611cc4565b8093505050505b919050565b60606000825190506000811415611da85760405180602001604052806000815250915050611f38565b60006003600283611db9919061351b565b611dc39190613571565b6004611dcf91906135a2565b90506000602082611de0919061351b565b67ffffffffffffffff811115611e1f577f4e487b7100000000000000000000000000000000000000000000000000000000600052604160045260246000fd5b6040519080825280601f01601f191660200182016040528015611e515781602001600182028036833780820191505090505b5090506000604051806060016040528060408152602001613951604091399050600181016020830160005b86811015611ef55760038101905062ffffff818a015116603f8160121c168401518060081b905060ff603f83600c1c1686015116810190508060081b905060ff603f8360061c1686015116810190508060081b905060ff603f831686015116810190508060e01b90508084526004840193505050611e7c565b506003860660018114611f0f5760028114611f1f57611f2a565b613d3d60f01b6002830352611f2a565b603d60f81b60018303525b508484525050819450505050505b919050565b60008151905060006a636f6e736f6c652e6c6f679050602083016000808483855afa5050505050565b611f70838361215d565b611f7d6000848484611fc6565b611fbc576040517f08c379a0000000000000000000000000000000000000000000000000000000008152600401611fb3906131dd565b60405180910390fd5b505050565b505050565b6000611fe78473ffffffffffffffffffffffffffffffffffffffff1661232b565b15612150578373ffffffffffffffffffffffffffffffffffffffff1663150b7a02612010611505565b8786866040518563ffffffff1660e01b81526004016120329493929190613154565b602060405180830381600087803b15801561204c57600080fd5b505af192505050801561207d57506040513d601f19601f8201168201806040525081019061207a9190612682565b60015b612100573d80600081146120ad576040519150601f19603f3d011682016040523d82523d6000602084013e6120b2565b606091505b506000815114156120f8576040517f08c379a00000000000000000000000000000000000000000000000000000000081526004016120ef906131dd565b60405180910390fd5b805181602001fd5b63150b7a0260e01b7bffffffffffffffffffffffffffffffffffffffffffffffffffffffff1916817bffffffffffffffffffffffffffffffffffffffffffffffffffffffff191614915050612155565b600190505b949350505050565b600073ffffffffffffffffffffffffffffffffffffffff168273ffffffffffffffffffffffffffffffffffffffff1614156121cd576040517f08c379a00000000000000000000000000000000000000000000000000000000081526004016121c4906132fd565b60405180910390fd5b6121d681611499565b15612216576040517f08c379a000000000000000000000000000000000000000000000000000000000815260040161220d9061321d565b60405180910390fd5b61222260008383611fc1565b6001600360008473ffffffffffffffffffffffffffffffffffffffff1673ffffffffffffffffffffffffffffffffffffffff1681526020019081526020016000206000828254612272919061351b565b92505081905550816002600083815260200190815260200160002060006101000a81548173ffffffffffffffffffffffffffffffffffffffff021916908373ffffffffffffffffffffffffffffffffffffffff160217905550808273ffffffffffffffffffffffffffffffffffffffff16600073ffffffffffffffffffffffffffffffffffffffff167fddf252ad1be2c89b69c2b068fc378daa952ba7f163c4a11628f55a4df523b3ef60405160405180910390a45050565b600080823b905060008111915050919050565b82805461234a906136e6565b90600052602060002090601f01602090048101928261236c57600085556123b3565b82601f1061238557805160ff19168380011785556123b3565b828001600101855582156123b3579182015b828111156123b2578251825591602001919060010190612397565b5b5090506123c091906123c4565b5090565b5b808211156123dd5760008160009055506001016123c5565b5090565b60006123f46123ef846134a8565b613477565b90508281526020810184848401111561240c57600080fd5b6124178482856136a4565b509392505050565b60008135905061242e81613869565b92915050565b60008135905061244381613880565b92915050565b60008135905061245881613897565b92915050565b60008151905061246d81613897565b92915050565b600082601f83011261248457600080fd5b81356124948482602086016123e1565b91505092915050565b6000813590506124ac816138ae565b92915050565b6000602082840312156124c457600080fd5b60006124d28482850161241f565b91505092915050565b600080604083850312156124ee57600080fd5b60006124fc8582860161241f565b925050602061250d8582860161241f565b9150509250929050565b60008060006060848603121561252c57600080fd5b600061253a8682870161241f565b935050602061254b8682870161241f565b925050604061255c8682870161249d565b9150509250925092565b6000806000806080858703121561257c57600080fd5b600061258a8782880161241f565b945050602061259b8782880161241f565b93505060406125ac8782880161249d565b925050606085013567ffffffffffffffff8111156125c957600080fd5b6125d587828801612473565b91505092959194509250565b600080604083850312156125f457600080fd5b60006126028582860161241f565b925050602061261385828601612434565b9150509250929050565b6000806040838503121561263057600080fd5b600061263e8582860161241f565b925050602061264f8582860161249d565b9150509250929050565b60006020828403121561266b57600080fd5b600061267984828501612449565b91505092915050565b60006020828403121561269457600080fd5b60006126a28482850161245e565b91505092915050565b6000602082840312156126bd57600080fd5b60006126cb8482850161249d565b91505092915050565b6126dd81613630565b82525050565b6126ec81613642565b82525050565b60006126fd826134d8565b61270781856134ee565b93506127178185602086016136b3565b61272081613858565b840191505092915050565b6000612736826134e3565b61274081856134ff565b93506127508185602086016136b3565b61275981613858565b840191505092915050565b600061276f826134e3565b6127798185613510565b93506127898185602086016136b3565b80840191505092915050565b60006127a2600b83613510565b91507f202d2d204e465420233a200000000000000000000000000000000000000000006000830152600b82019050919050565b60006127e26032836134ff565b91507f4552433732313a207472616e7366657220746f206e6f6e20455243373231526560008301527f63656976657220696d706c656d656e74657200000000000000000000000000006020830152604082019050919050565b6000612848602083613510565b91507f68747470733a2f2f692e696d6775722e636f6d2f65664c656a64652e6a7065676000830152602082019050919050565b60006128886026836134ff565b91507f4f776e61626c653a206e6577206f776e657220697320746865207a65726f206160008301527f64647265737300000000000000000000000000000000000000000000000000006020830152604082019050919050565b60006128ee601c836134ff565b91507f4552433732313a20746f6b656e20616c7265616479206d696e746564000000006000830152602082019050919050565b600061292e603e83613510565b91507f222c202261747472696275746573223a205b207b202274726169745f7479706560008301527f223a20224e756d626572206f662057696e73222c202276616c7565223a2000006020830152603e82019050919050565b6000612994602b83613510565b91507f7d2c207b202274726169745f74797065223a20224368616d70696f6e2049442260008301527f2c202276616c7565223a200000000000000000000000000000000000000000006020830152602b82019050919050565b60006129fa6024836134ff565b91507f4552433732313a207472616e7366657220746f20746865207a65726f2061646460008301527f72657373000000000000000000000000000000000000000000000000000000006020830152604082019050919050565b6000612a606019836134ff565b91507f4552433732313a20617070726f766520746f2063616c6c6572000000000000006000830152602082019050919050565b6000612aa0602c836134ff565b91507f4552433732313a206f70657261746f7220717565727920666f72206e6f6e657860008301527f697374656e7420746f6b656e00000000000000000000000000000000000000006020830152604082019050919050565b6000612b066038836134ff565b91507f4552433732313a20617070726f76652063616c6c6572206973206e6f74206f7760008301527f6e6572206e6f7220617070726f76656420666f7220616c6c00000000000000006020830152604082019050919050565b6000612b6c602a836134ff565b91507f4552433732313a2062616c616e636520717565727920666f7220746865207a6560008301527f726f2061646472657373000000000000000000000000000000000000000000006020830152604082019050919050565b6000612bd26029836134ff565b91507f4552433732313a206f776e657220717565727920666f72206e6f6e657869737460008301527f656e7420746f6b656e00000000000000000000000000000000000000000000006020830152604082019050919050565b6000612c38602583613510565b91507f7d2c207b202274726169745f74797065223a20224c6576656c222c202276616c60008301527f7565223a200000000000000000000000000000000000000000000000000000006020830152602582019050919050565b6000612c9e604e83613510565b91507f222c20226465736372697074696f6e223a202254686973206368616d70696f6e60008301527f20697320676f696e6720746f2074616b65206f76657220746865206172656e6160208301527f21222c2022696d616765223a20220000000000000000000000000000000000006040830152604e82019050919050565b6000612d2a600483613510565b91507f7d205d7d000000000000000000000000000000000000000000000000000000006000830152600482019050919050565b6000612d6a6020836134ff565b91507f4552433732313a206d696e7420746f20746865207a65726f20616464726573736000830152602082019050919050565b6000612daa600883613510565b91507f4368616d70696f6e0000000000000000000000000000000000000000000000006000830152600882019050919050565b6000612dea602c836134ff565b91507f4552433732313a20617070726f76656420717565727920666f72206e6f6e657860008301527f697374656e7420746f6b656e00000000000000000000000000000000000000006020830152604082019050919050565b6000612e506020836134ff565b91507f4f776e61626c653a2063616c6c6572206973206e6f7420746865206f776e65726000830152602082019050919050565b6000612e906029836134ff565b91507f4552433732313a207472616e73666572206f6620746f6b656e2074686174206960008301527f73206e6f74206f776e00000000000000000000000000000000000000000000006020830152604082019050919050565b6000612ef6600a83613510565b91507f7b226e616d65223a2022000000000000000000000000000000000000000000006000830152600a82019050919050565b6000612f366021836134ff565b91507f4552433732313a20617070726f76616c20746f2063757272656e74206f776e6560008301527f72000000000000000000000000000000000000000000000000000000000000006020830152604082019050919050565b6000612f9c601d83613510565b91507f646174613a6170706c69636174696f6e2f6a736f6e3b6261736536342c0000006000830152601d82019050919050565b6000612fdc6031836134ff565b91507f4552433732313a207472616e736665722063616c6c6572206973206e6f74206f60008301527f776e6572206e6f7220617070726f7665640000000000000000000000000000006020830152604082019050919050565b61303e8161369a565b82525050565b6130556130508261369a565b613761565b82525050565b600061306682612ee9565b915061307182612d9d565b915061307c82612795565b91506130888287612764565b915061309382612c91565b915061309e8261283b565b91506130a982612921565b91506130b58286612764565b91506130c082612c2b565b91506130cc8285612764565b91506130d782612987565b91506130e38284612764565b91506130ee82612d1d565b915081905095945050505050565b600061310782612f8f565b91506131138284612764565b915081905092915050565b600061312a8284613044565b60208201915081905092915050565b600060208201905061314e60008301846126d4565b92915050565b600060808201905061316960008301876126d4565b61317660208301866126d4565b6131836040830185613035565b818103606083015261319581846126f2565b905095945050505050565b60006020820190506131b560008301846126e3565b92915050565b600060208201905081810360008301526131d5818461272b565b905092915050565b600060208201905081810360008301526131f6816127d5565b9050919050565b600060208201905081810360008301526132168161287b565b9050919050565b60006020820190508181036000830152613236816128e1565b9050919050565b60006020820190508181036000830152613256816129ed565b9050919050565b6000602082019050818103600083015261327681612a53565b9050919050565b6000602082019050818103600083015261329681612a93565b9050919050565b600060208201905081810360008301526132b681612af9565b9050919050565b600060208201905081810360008301526132d681612b5f565b9050919050565b600060208201905081810360008301526132f681612bc5565b9050919050565b6000602082019050818103600083015261331681612d5d565b9050919050565b6000602082019050818103600083015261333681612ddd565b9050919050565b6000602082019050818103600083015261335681612e43565b9050919050565b6000602082019050818103600083015261337681612e83565b9050919050565b6000602082019050818103600083015261339681612f29565b9050919050565b600060208201905081810360008301526133b681612fcf565b9050919050565b60006020820190506133d26000830184613035565b92915050565b60006080820190506133ed6000830187613035565b6133fa6020830186613035565b6134076040830185613035565b6134146060830184613035565b95945050505050565b600060a0820190506134326000830188613035565b61343f6020830187613035565b61344c6040830186613035565b6134596060830185613035565b818103608083015261346b818461272b565b90509695505050505050565b6000604051905081810181811067ffffffffffffffff8211171561349e5761349d613829565b5b8060405250919050565b600067ffffffffffffffff8211156134c3576134c2613829565b5b601f19601f8301169050602081019050919050565b600081519050919050565b600081519050919050565b600082825260208201905092915050565b600082825260208201905092915050565b600081905092915050565b60006135268261369a565b91506135318361369a565b9250827fffffffffffffffffffffffffffffffffffffffffffffffffffffffffffffffff038211156135665761356561379c565b5b828201905092915050565b600061357c8261369a565b91506135878361369a565b925082613597576135966137cb565b5b828204905092915050565b60006135ad8261369a565b91506135b88361369a565b9250817fffffffffffffffffffffffffffffffffffffffffffffffffffffffffffffffff04831182151516156135f1576135f061379c565b5b828202905092915050565b60006136078261369a565b91506136128361369a565b9250828210156136255761362461379c565b5b828203905092915050565b600061363b8261367a565b9050919050565b60008115159050919050565b60007fffffffff0000000000000000000000000000000000000000000000000000000082169050919050565b600073ffffffffffffffffffffffffffffffffffffffff82169050919050565b6000819050919050565b82818337600083830152505050565b60005b838110156136d15780820151818401526020810190506136b6565b838111156136e0576000848401525b50505050565b600060028204905060018216806136fe57607f821691505b60208210811415613712576137116137fa565b5b50919050565b60006137238261369a565b91507fffffffffffffffffffffffffffffffffffffffffffffffffffffffffffffffff8214156137565761375561379c565b5b600182019050919050565b6000819050919050565b60006137768261369a565b91506137818361369a565b925082613791576137906137cb565b5b828206905092915050565b7f4e487b7100000000000000000000000000000000000000000000000000000000600052601160045260246000fd5b7f4e487b7100000000000000000000000000000000000000000000000000000000600052601260045260246000fd5b7f4e487b7100000000000000000000000000000000000000000000000000000000600052602260045260246000fd5b7f4e487b7100000000000000000000000000000000000000000000000000000000600052604160045260246000fd5b6000601f19601f8301169050919050565b61387281613630565b811461387d57600080fd5b50565b61388981613642565b811461389457600080fd5b50565b6138a08161364e565b81146138ab57600080fd5b50565b6138b78161369a565b81146138c257600080fd5b5056fe68747470733a2f2f75706c6f61642e77696b696d656469612e6f72672f77696b6970656469612f636f6d6d6f6e732f7468756d622f622f62362f496d6167655f637265617465645f776974685f615f6d6f62696c655f70686f6e652e706e672f34343070782d496d6167655f637265617465645f776974685f615f6d6f62696c655f70686f6e652e706e674142434445464748494a4b4c4d4e4f505152535455565758595a6162636465666768696a6b6c6d6e6f707172737475767778797a303132333435363738392b2fa2646970667358221220b0d1ab1abfba2e196bec5ac1e34fe4b844abfc6e1633687490e4a589b8247a2b64736f6c63430008000033",
  "linkReferences": {},
  "deployedLinkReferences": {}
}