{
  "_format": "hh-sol-artifact-1",
  "contractName": "Champion",
  "sourceName": "contracts/Champion.sol",
  "abi": [
    {
      "inputs": [],
      "stateMutability": "nonpayable",
      "type": "constructor"
    },
    {
      "anonymous": false,
      "inputs": [
        {
          "indexed": true,
          "internalType": "address",
          "name": "owner",
          "type": "address"
        },
        {
          "indexed": true,
          "internalType": "address",
          "name": "approved",
          "type": "address"
        },
        {
          "indexed": true,
          "internalType": "uint256",
          "name": "tokenId",
          "type": "uint256"
        }
      ],
      "name": "Approval",
      "type": "event"
    },
    {
      "anonymous": false,
      "inputs": [
        {
          "indexed": true,
          "internalType": "address",
          "name": "owner",
          "type": "address"
        },
        {
          "indexed": true,
          "internalType": "address",
          "name": "operator",
          "type": "address"
        },
        {
          "indexed": false,
          "internalType": "bool",
          "name": "approved",
          "type": "bool"
        }
      ],
      "name": "ApprovalForAll",
      "type": "event"
    },
    {
      "anonymous": false,
      "inputs": [
        {
          "indexed": true,
          "internalType": "address",
          "name": "previousOwner",
          "type": "address"
        },
        {
          "indexed": true,
          "internalType": "address",
          "name": "newOwner",
          "type": "address"
        }
      ],
      "name": "OwnershipTransferred",
      "type": "event"
    },
    {
      "anonymous": false,
      "inputs": [
        {
          "indexed": true,
          "internalType": "address",
          "name": "from",
          "type": "address"
        },
        {
          "indexed": true,
          "internalType": "address",
          "name": "to",
          "type": "address"
        },
        {
          "indexed": true,
          "internalType": "uint256",
          "name": "tokenId",
          "type": "uint256"
        }
      ],
      "name": "Transfer",
      "type": "event"
    },
    {
      "inputs": [
        {
          "internalType": "address",
          "name": "to",
          "type": "address"
        },
        {
          "internalType": "uint256",
          "name": "tokenId",
          "type": "uint256"
        }
      ],
      "name": "approve",
      "outputs": [],
      "stateMutability": "nonpayable",
      "type": "function"
    },
    {
      "inputs": [
        {
          "internalType": "address",
          "name": "owner",
          "type": "address"
        }
      ],
      "name": "balanceOf",
      "outputs": [
        {
          "internalType": "uint256",
          "name": "",
          "type": "uint256"
        }
      ],
      "stateMutability": "view",
      "type": "function"
    },
    {
      "inputs": [
        {
          "internalType": "uint256",
          "name": "",
          "type": "uint256"
        }
      ],
      "name": "championToOwner",
      "outputs": [
        {
          "internalType": "address",
          "name": "",
          "type": "address"
        }
      ],
      "stateMutability": "view",
      "type": "function"
    },
    {
      "inputs": [
        {
          "internalType": "uint256",
          "name": "",
          "type": "uint256"
        }
      ],
      "name": "champions",
      "outputs": [
        {
          "internalType": "uint256",
          "name": "id",
          "type": "uint256"
        },
        {
          "internalType": "uint256",
          "name": "token",
          "type": "uint256"
        },
        {
          "internalType": "uint256",
          "name": "numWins",
          "type": "uint256"
        },
        {
          "internalType": "uint256",
          "name": "level",
          "type": "uint256"
        },
        {
          "internalType": "string",
          "name": "imageURI",
          "type": "string"
        }
      ],
      "stateMutability": "view",
      "type": "function"
    },
    {
      "inputs": [],
      "name": "createRandomChampion",
      "outputs": [],
      "stateMutability": "nonpayable",
      "type": "function"
    },
    {
      "inputs": [
        {
          "internalType": "uint256",
          "name": "tokenId",
          "type": "uint256"
        }
      ],
      "name": "getApproved",
      "outputs": [
        {
          "internalType": "address",
          "name": "",
          "type": "address"
        }
      ],
      "stateMutability": "view",
      "type": "function"
    },
    {
      "inputs": [
        {
          "internalType": "address",
          "name": "_owner",
          "type": "address"
        }
      ],
      "name": "getChampionCount",
      "outputs": [
        {
          "internalType": "uint256",
          "name": "",
          "type": "uint256"
        }
      ],
      "stateMutability": "view",
      "type": "function"
    },
    {
      "inputs": [
        {
          "internalType": "uint256",
          "name": "_tokenId",
          "type": "uint256"
        }
      ],
      "name": "getChampionDetails",
      "outputs": [
        {
          "internalType": "uint256",
          "name": "",
          "type": "uint256"
        },
        {
          "internalType": "uint256",
          "name": "",
          "type": "uint256"
        },
        {
          "internalType": "uint256",
          "name": "",
          "type": "uint256"
        },
        {
          "internalType": "uint256",
          "name": "",
          "type": "uint256"
        }
      ],
      "stateMutability": "view",
      "type": "function"
    },
    {
      "inputs": [],
      "name": "getDeployed",
      "outputs": [
        {
          "internalType": "bool",
          "name": "",
          "type": "bool"
        }
      ],
      "stateMutability": "view",
      "type": "function"
    },
    {
      "inputs": [
        {
          "internalType": "uint256",
          "name": "_tokenId",
          "type": "uint256"
        }
      ],
      "name": "getOwner",
      "outputs": [
        {
          "internalType": "address",
          "name": "",
          "type": "address"
        }
      ],
      "stateMutability": "view",
      "type": "function"
    },
    {
      "inputs": [
        {
          "internalType": "address",
          "name": "owner",
          "type": "address"
        },
        {
          "internalType": "address",
          "name": "operator",
          "type": "address"
        }
      ],
      "name": "isApprovedForAll",
      "outputs": [
        {
          "internalType": "bool",
          "name": "",
          "type": "bool"
        }
      ],
      "stateMutability": "view",
      "type": "function"
    },
    {
      "inputs": [
        {
          "internalType": "uint256",
          "name": "_id",
          "type": "uint256"
        }
      ],
      "name": "mintChampion",
      "outputs": [],
      "stateMutability": "nonpayable",
      "type": "function"
    },
    {
      "inputs": [],
      "name": "name",
      "outputs": [
        {
          "internalType": "string",
          "name": "",
          "type": "string"
        }
      ],
      "stateMutability": "view",
      "type": "function"
    },
    {
      "inputs": [],
      "name": "owner",
      "outputs": [
        {
          "internalType": "address",
          "name": "",
          "type": "address"
        }
      ],
      "stateMutability": "view",
      "type": "function"
    },
    {
      "inputs": [
        {
          "internalType": "uint256",
          "name": "tokenId",
          "type": "uint256"
        }
      ],
      "name": "ownerOf",
      "outputs": [
        {
          "internalType": "address",
          "name": "",
          "type": "address"
        }
      ],
      "stateMutability": "view",
      "type": "function"
    },
    {
      "inputs": [],
      "name": "renounceOwnership",
      "outputs": [],
      "stateMutability": "nonpayable",
      "type": "function"
    },
    {
      "inputs": [
        {
          "internalType": "address",
          "name": "from",
          "type": "address"
        },
        {
          "internalType": "address",
          "name": "to",
          "type": "address"
        },
        {
          "internalType": "uint256",
          "name": "tokenId",
          "type": "uint256"
        }
      ],
      "name": "safeTransferFrom",
      "outputs": [],
      "stateMutability": "nonpayable",
      "type": "function"
    },
    {
      "inputs": [
        {
          "internalType": "address",
          "name": "from",
          "type": "address"
        },
        {
          "internalType": "address",
          "name": "to",
          "type": "address"
        },
        {
          "internalType": "uint256",
          "name": "tokenId",
          "type": "uint256"
        },
        {
          "internalType": "bytes",
          "name": "_data",
          "type": "bytes"
        }
      ],
      "name": "safeTransferFrom",
      "outputs": [],
      "stateMutability": "nonpayable",
      "type": "function"
    },
    {
      "inputs": [
        {
          "internalType": "address",
          "name": "operator",
          "type": "address"
        },
        {
          "internalType": "bool",
          "name": "approved",
          "type": "bool"
        }
      ],
      "name": "setApprovalForAll",
      "outputs": [],
      "stateMutability": "nonpayable",
      "type": "function"
    },
    {
      "inputs": [
        {
          "internalType": "bytes4",
          "name": "interfaceId",
          "type": "bytes4"
        }
      ],
      "name": "supportsInterface",
      "outputs": [
        {
          "internalType": "bool",
          "name": "",
          "type": "bool"
        }
      ],
      "stateMutability": "view",
      "type": "function"
    },
    {
      "inputs": [],
      "name": "symbol",
      "outputs": [
        {
          "internalType": "string",
          "name": "",
          "type": "string"
        }
      ],
      "stateMutability": "view",
      "type": "function"
    },
    {
      "inputs": [
        {
          "internalType": "uint256",
          "name": "",
          "type": "uint256"
        }
      ],
      "name": "tokenToChampion",
      "outputs": [
        {
          "internalType": "uint256",
          "name": "id",
          "type": "uint256"
        },
        {
          "internalType": "uint256",
          "name": "token",
          "type": "uint256"
        },
        {
          "internalType": "uint256",
          "name": "numWins",
          "type": "uint256"
        },
        {
          "internalType": "uint256",
          "name": "level",
          "type": "uint256"
        },
        {
          "internalType": "string",
          "name": "imageURI",
          "type": "string"
        }
      ],
      "stateMutability": "view",
      "type": "function"
    },
    {
      "inputs": [
        {
          "internalType": "uint256",
          "name": "_tokenId",
          "type": "uint256"
        }
      ],
      "name": "tokenURI",
      "outputs": [
        {
          "internalType": "string",
          "name": "",
          "type": "string"
        }
      ],
      "stateMutability": "view",
      "type": "function"
    },
    {
      "inputs": [
        {
          "internalType": "address",
          "name": "from",
          "type": "address"
        },
        {
          "internalType": "address",
          "name": "to",
          "type": "address"
        },
        {
          "internalType": "uint256",
          "name": "tokenId",
          "type": "uint256"
        }
      ],
      "name": "transferFrom",
      "outputs": [],
      "stateMutability": "nonpayable",
      "type": "function"
    },
    {
      "inputs": [
        {
          "internalType": "address",
          "name": "newOwner",
          "type": "address"
        }
      ],
      "name": "transferOwnership",
      "outputs": [],
      "stateMutability": "nonpayable",
      "type": "function"
    }
  ],
  "bytecode": "0x60806040526008600955600954600a6200001a919062000498565b600a556000600b60006101000a81548160ff0219169083151502179055503480156200004557600080fd5b506040518060400160405280600981526020017f4368616d70696f6e7300000000000000000000000000000000000000000000008152506040518060400160405280600581526020017f4348414d500000000000000000000000000000000000000000000000000000008152508160009080519060200190620000ca9291906200030c565b508060019080519060200190620000e39291906200030c565b50505062000106620000fa6200017260201b60201c565b6200017a60201b60201c565b620001516040518060400160405280600f81526020017f4465706c6f796564206368616d707300000000000000000000000000000000008152506200024060201b620013a41760201c565b6001600b60006101000a81548160ff021916908315150217905550620006c7565b600033905090565b6000600760009054906101000a900473ffffffffffffffffffffffffffffffffffffffff16905081600760006101000a81548173ffffffffffffffffffffffffffffffffffffffff021916908373ffffffffffffffffffffffffffffffffffffffff1602179055508173ffffffffffffffffffffffffffffffffffffffff168173ffffffffffffffffffffffffffffffffffffffff167f8be0079c531659141344cd1fd0a4f28419497f9722a3daafe3b4186f6b6457e060405160405180910390a35050565b620002e081604051602401620002579190620003fd565b6040516020818303038152906040527f41304fac000000000000000000000000000000000000000000000000000000007bffffffffffffffffffffffffffffffffffffffffffffffffffffffff19166020820180517bffffffffffffffffffffffffffffffffffffffffffffffffffffffff8381831617835250505050620002e360201b60201c565b50565b60008151905060006a636f6e736f6c652e6c6f679050602083016000808483855afa5050505050565b8280546200031a9062000615565b90600052602060002090601f0160209004810192826200033e57600085556200038a565b82601f106200035957805160ff19168380011785556200038a565b828001600101855582156200038a579182015b82811115620003895782518255916020019190600101906200036c565b5b5090506200039991906200039d565b5090565b5b80821115620003b85760008160009055506001016200039e565b5090565b6000620003c98262000421565b620003d581856200042c565b9350620003e7818560208601620005df565b620003f281620006a9565b840191505092915050565b60006020820190508181036000830152620004198184620003bc565b905092915050565b600081519050919050565b600082825260208201905092915050565b6000808291508390505b60018511156200048f578086048111156200046757620004666200064b565b5b6001851615620004775780820291505b80810290506200048785620006ba565b945062000447565b94509492505050565b6000620004a582620005d5565b9150620004b283620005d5565b9250620004e17fffffffffffffffffffffffffffffffffffffffffffffffffffffffffffffffff8484620004e9565b905092915050565b600082620004fb5760019050620005ce565b816200050b5760009050620005ce565b81600181146200052457600281146200052f5762000565565b6001915050620005ce565b60ff8411156200054457620005436200064b565b5b8360020a9150848211156200055e576200055d6200064b565b5b50620005ce565b5060208310610133831016604e8410600b84101617156200059f5782820a9050838111156200059957620005986200064b565b5b620005ce565b620005ae84848460016200043d565b92509050818404811115620005c857620005c76200064b565b5b81810290505b9392505050565b6000819050919050565b60005b83811015620005ff578082015181840152602081019050620005e2565b838111156200060f576000848401525b50505050565b600060028204905060018216806200062e57607f821691505b602082108114156200064557620006446200067a565b5b50919050565b7f4e487b7100000000000000000000000000000000000000000000000000000000600052601160045260246000fd5b7f4e487b7100000000000000000000000000000000000000000000000000000000600052602260045260246000fd5b6000601f19601f8301169050919050565b60008160011c9050919050565b613a1680620006d76000396000f3fe608060405234801561001057600080fd5b50600436106101735760003560e01c80638da5cb5b116100de578063c41a360a11610097578063d0bbef7a11610071578063d0bbef7a14610463578063e985e9c514610497578063efa92106146104c7578063f2fde38b146104f757610173565b8063c41a360a146103d3578063c853e52714610403578063c87b56dd1461043357610173565b80638da5cb5b146102f857806395d89b41146103165780639b509d1314610334578063a22cb46514610368578063b88d4fde14610384578063c3e04bf0146103a057610173565b80633551069811610130578063355106981461024a57806342842e0e146102545780636352211e1461027057806370a08231146102a0578063715018a6146102d0578063839e9053146102da57610173565b806301ffc9a71461017857806302531c4a146101a857806306fdde03146101c4578063081812fc146101e2578063095ea7b31461021257806323b872dd1461022e575b600080fd5b610192600480360381019061018d91906126a9565b610513565b60405161019f91906131f0565b60405180910390f35b6101c260048036038101906101bd91906126fb565b6105f5565b005b6101cc61075e565b6040516101d9919061320b565b60405180910390f35b6101fc60048036038101906101f791906126fb565b6107f0565b6040516102099190613189565b60405180910390f35b61022c6004803603810190610227919061266d565b610875565b005b61024860048036038101906102439190612567565b61098d565b005b6102526109ed565b005b61026e60048036038101906102699190612567565b610a05565b005b61028a600480360381019061028591906126fb565b610a25565b6040516102979190613189565b60405180910390f35b6102ba60048036038101906102b59190612502565b610ad7565b6040516102c7919061340d565b60405180910390f35b6102d8610b8f565b005b6102e2610c17565b6040516102ef91906131f0565b60405180910390f35b610300610c2e565b60405161030d9190613189565b60405180910390f35b61031e610c58565b60405161032b919061320b565b60405180910390f35b61034e600480360381019061034991906126fb565b610cea565b60405161035f95949392919061346d565b60405180910390f35b610382600480360381019061037d9190612631565b610da8565b005b61039e600480360381019061039991906125b6565b610dbe565b005b6103ba60048036038101906103b591906126fb565b610e20565b6040516103ca9493929190613428565b60405180910390f35b6103ed60048036038101906103e891906126fb565b610f26565b6040516103fa9190613189565b60405180910390f35b61041d600480360381019061041891906126fb565b610f63565b60405161042a9190613189565b60405180910390f35b61044d600480360381019061044891906126fb565b610f96565b60405161045a919061320b565b60405180910390f35b61047d600480360381019061047891906126fb565b611101565b60405161048e95949392919061346d565b60405180910390f35b6104b160048036038101906104ac919061252b565b6111cf565b6040516104be91906131f0565b60405180910390f35b6104e160048036038101906104dc9190612502565b611263565b6040516104ee919061340d565b60405180910390f35b610511600480360381019061050c9190612502565b6112ac565b005b60007f80ac58cd000000000000000000000000000000000000000000000000000000007bffffffffffffffffffffffffffffffffffffffffffffffffffffffff1916827bffffffffffffffffffffffffffffffffffffffffffffffffffffffff191614806105de57507f5b5e139f000000000000000000000000000000000000000000000000000000007bffffffffffffffffffffffffffffffffffffffffffffffffffffffff1916827bffffffffffffffffffffffffffffffffffffffffffffffffffffffff1916145b806105ee57506105ed8261143d565b5b9050919050565b600061060160086114a7565b905061060d33826114b5565b6040518060a0016040528083815260200182815260200160008152602001600181526020016040518060c00160405280608b8152602001613916608b9139815250600d60008381526020019081526020016000206000820151816000015560208201518160010155604082015181600201556060820151816003015560808201518160040190805190602001906106a592919061238e565b5090505033600e600083815260200190815260200160002060006101000a81548173ffffffffffffffffffffffffffffffffffffffff021916908373ffffffffffffffffffffffffffffffffffffffff160217905550600f60003373ffffffffffffffffffffffffffffffffffffffff1673ffffffffffffffffffffffffffffffffffffffff168152602001908152602001600020600081548092919061074b90613768565b919050555061075a60086114d3565b5050565b60606000805461076d90613736565b80601f016020809104026020016040519081016040528092919081815260200182805461079990613736565b80156107e65780601f106107bb576101008083540402835291602001916107e6565b820191906000526020600020905b8154815290600101906020018083116107c957829003601f168201915b5050505050905090565b60006107fb826114e9565b61083a576040517f08c379a00000000000000000000000000000000000000000000000000000000081526004016108319061336d565b60405180910390fd5b6004600083815260200190815260200160002060009054906101000a900473ffffffffffffffffffffffffffffffffffffffff169050919050565b600061088082610a25565b90508073ffffffffffffffffffffffffffffffffffffffff168373ffffffffffffffffffffffffffffffffffffffff1614156108f1576040517f08c379a00000000000000000000000000000000000000000000000000000000081526004016108e8906133cd565b60405180910390fd5b8073ffffffffffffffffffffffffffffffffffffffff16610910611555565b73ffffffffffffffffffffffffffffffffffffffff16148061093f575061093e81610939611555565b6111cf565b5b61097e576040517f08c379a0000000000000000000000000000000000000000000000000000000008152600401610975906132ed565b60405180910390fd5b610988838361155d565b505050565b61099e610998611555565b82611616565b6109dd576040517f08c379a00000000000000000000000000000000000000000000000000000000081526004016109d4906133ed565b60405180910390fd5b6109e88383836116f4565b505050565b60006109f7611950565b9050610a02816105f5565b50565b610a2083838360405180602001604052806000815250610dbe565b505050565b6000806002600084815260200190815260200160002060009054906101000a900473ffffffffffffffffffffffffffffffffffffffff169050600073ffffffffffffffffffffffffffffffffffffffff168173ffffffffffffffffffffffffffffffffffffffff161415610ace576040517f08c379a0000000000000000000000000000000000000000000000000000000008152600401610ac59061332d565b60405180910390fd5b80915050919050565b60008073ffffffffffffffffffffffffffffffffffffffff168273ffffffffffffffffffffffffffffffffffffffff161415610b48576040517f08c379a0000000000000000000000000000000000000000000000000000000008152600401610b3f9061330d565b60405180910390fd5b600360008373ffffffffffffffffffffffffffffffffffffffff1673ffffffffffffffffffffffffffffffffffffffff168152602001908152602001600020549050919050565b610b97611555565b73ffffffffffffffffffffffffffffffffffffffff16610bb5610c2e565b73ffffffffffffffffffffffffffffffffffffffff1614610c0b576040517f08c379a0000000000000000000000000000000000000000000000000000000008152600401610c029061338d565b60405180910390fd5b610c156000611993565b565b6000600b60009054906101000a900460ff16905090565b6000600760009054906101000a900473ffffffffffffffffffffffffffffffffffffffff16905090565b606060018054610c6790613736565b80601f0160208091040260200160405190810160405280929190818152602001828054610c9390613736565b8015610ce05780601f10610cb557610100808354040283529160200191610ce0565b820191906000526020600020905b815481529060010190602001808311610cc357829003601f168201915b5050505050905090565b600d602052806000526040600020600091509050806000015490806001015490806002015490806003015490806004018054610d2590613736565b80601f0160208091040260200160405190810160405280929190818152602001828054610d5190613736565b8015610d9e5780601f10610d7357610100808354040283529160200191610d9e565b820191906000526020600020905b815481529060010190602001808311610d8157829003601f168201915b5050505050905085565b610dba610db3611555565b8383611a59565b5050565b610dcf610dc9611555565b83611616565b610e0e576040517f08c379a0000000000000000000000000000000000000000000000000000000008152600401610e05906133ed565b60405180910390fd5b610e1a84848484611bc6565b50505050565b6000806000806000600d60008781526020019081526020016000206040518060a001604052908160008201548152602001600182015481526020016002820154815260200160038201548152602001600482018054610e7e90613736565b80601f0160208091040260200160405190810160405280929190818152602001828054610eaa90613736565b8015610ef75780601f10610ecc57610100808354040283529160200191610ef7565b820191906000526020600020905b815481529060010190602001808311610eda57829003601f168201915b505050505081525050905080602001518160000151826040015183606001519450945094509450509193509193565b6000600e600083815260200190815260200160002060009054906101000a900473ffffffffffffffffffffffffffffffffffffffff169050919050565b600e6020528060005260406000206000915054906101000a900473ffffffffffffffffffffffffffffffffffffffff1681565b60606000600d60008481526020019081526020016000206040518060a001604052908160008201548152602001600182015481526020016002820154815260200160038201548152602001600482018054610ff090613736565b80601f016020809104026020016040519081016040528092919081815260200182805461101c90613736565b80156110695780601f1061103e57610100808354040283529160200191611069565b820191906000526020600020905b81548152906001019060200180831161104c57829003601f168201915b505050505081525050905060006110d061108285611c22565b61108f8460400151611c22565b61109c8560600151611c22565b6110a98660000151611c22565b6040516020016110bc94939291906130ab565b604051602081830303815290604052611dcf565b90506000816040516020016110e5919061314c565b6040516020818303038152906040529050809350505050919050565b600c818154811061111157600080fd5b906000526020600020906005020160009150905080600001549080600101549080600201549080600301549080600401805461114c90613736565b80601f016020809104026020016040519081016040528092919081815260200182805461117890613736565b80156111c55780601f1061119a576101008083540402835291602001916111c5565b820191906000526020600020905b8154815290600101906020018083116111a857829003601f168201915b5050505050905085565b6000600560008473ffffffffffffffffffffffffffffffffffffffff1673ffffffffffffffffffffffffffffffffffffffff16815260200190815260200160002060008373ffffffffffffffffffffffffffffffffffffffff1673ffffffffffffffffffffffffffffffffffffffff16815260200190815260200160002060009054906101000a900460ff16905092915050565b6000600f60008373ffffffffffffffffffffffffffffffffffffffff1673ffffffffffffffffffffffffffffffffffffffff168152602001908152602001600020549050919050565b6112b4611555565b73ffffffffffffffffffffffffffffffffffffffff166112d2610c2e565b73ffffffffffffffffffffffffffffffffffffffff1614611328576040517f08c379a000000000000000000000000000000000000000000000000000000000815260040161131f9061338d565b60405180910390fd5b600073ffffffffffffffffffffffffffffffffffffffff168173ffffffffffffffffffffffffffffffffffffffff161415611398576040517f08c379a000000000000000000000000000000000000000000000000000000000815260040161138f9061324d565b60405180910390fd5b6113a181611993565b50565b61143a816040516024016113b8919061320b565b6040516020818303038152906040527f41304fac000000000000000000000000000000000000000000000000000000007bffffffffffffffffffffffffffffffffffffffffffffffffffffffff19166020820180517bffffffffffffffffffffffffffffffffffffffffffffffffffffffff8381831617835250505050611f8d565b50565b60007f01ffc9a7000000000000000000000000000000000000000000000000000000007bffffffffffffffffffffffffffffffffffffffffffffffffffffffff1916827bffffffffffffffffffffffffffffffffffffffffffffffffffffffff1916149050919050565b600081600001549050919050565b6114cf828260405180602001604052806000815250611fb6565b5050565b6001816000016000828254019250508190555050565b60008073ffffffffffffffffffffffffffffffffffffffff166002600084815260200190815260200160002060009054906101000a900473ffffffffffffffffffffffffffffffffffffffff1673ffffffffffffffffffffffffffffffffffffffff1614159050919050565b600033905090565b816004600083815260200190815260200160002060006101000a81548173ffffffffffffffffffffffffffffffffffffffff021916908373ffffffffffffffffffffffffffffffffffffffff160217905550808273ffffffffffffffffffffffffffffffffffffffff166115d083610a25565b73ffffffffffffffffffffffffffffffffffffffff167f8c5be1e5ebec7d5bd14f71427d1e84f3dd0314c0f7b2291e5b200ac8c7c3b92560405160405180910390a45050565b6000611621826114e9565b611660576040517f08c379a0000000000000000000000000000000000000000000000000000000008152600401611657906132cd565b60405180910390fd5b600061166b83610a25565b90508073ffffffffffffffffffffffffffffffffffffffff168473ffffffffffffffffffffffffffffffffffffffff1614806116da57508373ffffffffffffffffffffffffffffffffffffffff166116c2846107f0565b73ffffffffffffffffffffffffffffffffffffffff16145b806116eb57506116ea81856111cf565b5b91505092915050565b8273ffffffffffffffffffffffffffffffffffffffff1661171482610a25565b73ffffffffffffffffffffffffffffffffffffffff161461176a576040517f08c379a0000000000000000000000000000000000000000000000000000000008152600401611761906133ad565b60405180910390fd5b600073ffffffffffffffffffffffffffffffffffffffff168273ffffffffffffffffffffffffffffffffffffffff1614156117da576040517f08c379a00000000000000000000000000000000000000000000000000000000081526004016117d19061328d565b60405180910390fd5b6117e5838383612011565b6117f060008261155d565b6001600360008573ffffffffffffffffffffffffffffffffffffffff1673ffffffffffffffffffffffffffffffffffffffff1681526020019081526020016000206000828254611840919061364c565b925050819055506001600360008473ffffffffffffffffffffffffffffffffffffffff1673ffffffffffffffffffffffffffffffffffffffff1681526020019081526020016000206000828254611897919061356b565b92505081905550816002600083815260200190815260200160002060006101000a81548173ffffffffffffffffffffffffffffffffffffffff021916908373ffffffffffffffffffffffffffffffffffffffff160217905550808273ffffffffffffffffffffffffffffffffffffffff168473ffffffffffffffffffffffffffffffffffffffff167fddf252ad1be2c89b69c2b068fc378daa952ba7f163c4a11628f55a4df523b3ef60405160405180910390a4505050565b60008042604051602001611964919061316e565b6040516020818303038152906040528051906020012060001c9050600a548161198d91906137bb565b91505090565b6000600760009054906101000a900473ffffffffffffffffffffffffffffffffffffffff16905081600760006101000a81548173ffffffffffffffffffffffffffffffffffffffff021916908373ffffffffffffffffffffffffffffffffffffffff1602179055508173ffffffffffffffffffffffffffffffffffffffff168173ffffffffffffffffffffffffffffffffffffffff167f8be0079c531659141344cd1fd0a4f28419497f9722a3daafe3b4186f6b6457e060405160405180910390a35050565b8173ffffffffffffffffffffffffffffffffffffffff168373ffffffffffffffffffffffffffffffffffffffff161415611ac8576040517f08c379a0000000000000000000000000000000000000000000000000000000008152600401611abf906132ad565b60405180910390fd5b80600560008573ffffffffffffffffffffffffffffffffffffffff1673ffffffffffffffffffffffffffffffffffffffff16815260200190815260200160002060008473ffffffffffffffffffffffffffffffffffffffff1673ffffffffffffffffffffffffffffffffffffffff16815260200190815260200160002060006101000a81548160ff0219169083151502179055508173ffffffffffffffffffffffffffffffffffffffff168373ffffffffffffffffffffffffffffffffffffffff167f17307eab39ab6107e8899845ad3d59bd9653f200f220920489ca2b5937696c3183604051611bb991906131f0565b60405180910390a3505050565b611bd18484846116f4565b611bdd84848484612016565b611c1c576040517f08c379a0000000000000000000000000000000000000000000000000000000008152600401611c139061322d565b60405180910390fd5b50505050565b60606000821415611c6a576040518060400160405280600181526020017f30000000000000000000000000000000000000000000000000000000000000008152509050611dca565b600082905060005b60008214611c9c578080611c8590613768565b915050600a82611c9591906135c1565b9150611c72565b60008167ffffffffffffffff811115611cde577f4e487b7100000000000000000000000000000000000000000000000000000000600052604160045260246000fd5b6040519080825280601f01601f191660200182016040528015611d105781602001600182028036833780820191505090505b5090505b60008514611dc357600182611d29919061364c565b9150600a85611d3891906137bb565b6030611d44919061356b565b60f81b818381518110611d80577f4e487b7100000000000000000000000000000000000000000000000000000000600052603260045260246000fd5b60200101907effffffffffffffffffffffffffffffffffffffffffffffffffffffffffffff1916908160001a905350600a85611dbc91906135c1565b9450611d14565b8093505050505b919050565b60606000825190506000811415611df85760405180602001604052806000815250915050611f88565b60006003600283611e09919061356b565b611e1391906135c1565b6004611e1f91906135f2565b90506000602082611e30919061356b565b67ffffffffffffffff811115611e6f577f4e487b7100000000000000000000000000000000000000000000000000000000600052604160045260246000fd5b6040519080825280601f01601f191660200182016040528015611ea15781602001600182028036833780820191505090505b50905060006040518060600160405280604081526020016139a1604091399050600181016020830160005b86811015611f455760038101905062ffffff818a015116603f8160121c168401518060081b905060ff603f83600c1c1686015116810190508060081b905060ff603f8360061c1686015116810190508060081b905060ff603f831686015116810190508060e01b90508084526004840193505050611ecc565b506003860660018114611f5f5760028114611f6f57611f7a565b613d3d60f01b6002830352611f7a565b603d60f81b60018303525b508484525050819450505050505b919050565b60008151905060006a636f6e736f6c652e6c6f679050602083016000808483855afa5050505050565b611fc083836121ad565b611fcd6000848484612016565b61200c576040517f08c379a00000000000000000000000000000000000000000000000000000000081526004016120039061322d565b60405180910390fd5b505050565b505050565b60006120378473ffffffffffffffffffffffffffffffffffffffff1661237b565b156121a0578373ffffffffffffffffffffffffffffffffffffffff1663150b7a02612060611555565b8786866040518563ffffffff1660e01b815260040161208294939291906131a4565b602060405180830381600087803b15801561209c57600080fd5b505af19250505080156120cd57506040513d601f19601f820116820180604052508101906120ca91906126d2565b60015b612150573d80600081146120fd576040519150601f19603f3d011682016040523d82523d6000602084013e612102565b606091505b50600081511415612148576040517f08c379a000000000000000000000000000000000000000000000000000000000815260040161213f9061322d565b60405180910390fd5b805181602001fd5b63150b7a0260e01b7bffffffffffffffffffffffffffffffffffffffffffffffffffffffff1916817bffffffffffffffffffffffffffffffffffffffffffffffffffffffff1916149150506121a5565b600190505b949350505050565b600073ffffffffffffffffffffffffffffffffffffffff168273ffffffffffffffffffffffffffffffffffffffff16141561221d576040517f08c379a00000000000000000000000000000000000000000000000000000000081526004016122149061334d565b60405180910390fd5b612226816114e9565b15612266576040517f08c379a000000000000000000000000000000000000000000000000000000000815260040161225d9061326d565b60405180910390fd5b61227260008383612011565b6001600360008473ffffffffffffffffffffffffffffffffffffffff1673ffffffffffffffffffffffffffffffffffffffff16815260200190815260200160002060008282546122c2919061356b565b92505081905550816002600083815260200190815260200160002060006101000a81548173ffffffffffffffffffffffffffffffffffffffff021916908373ffffffffffffffffffffffffffffffffffffffff160217905550808273ffffffffffffffffffffffffffffffffffffffff16600073ffffffffffffffffffffffffffffffffffffffff167fddf252ad1be2c89b69c2b068fc378daa952ba7f163c4a11628f55a4df523b3ef60405160405180910390a45050565b600080823b905060008111915050919050565b82805461239a90613736565b90600052602060002090601f0160209004810192826123bc5760008555612403565b82601f106123d557805160ff1916838001178555612403565b82800160010185558215612403579182015b828111156124025782518255916020019190600101906123e7565b5b5090506124109190612414565b5090565b5b8082111561242d576000816000905550600101612415565b5090565b600061244461243f846134f8565b6134c7565b90508281526020810184848401111561245c57600080fd5b6124678482856136f4565b509392505050565b60008135905061247e816138b9565b92915050565b600081359050612493816138d0565b92915050565b6000813590506124a8816138e7565b92915050565b6000815190506124bd816138e7565b92915050565b600082601f8301126124d457600080fd5b81356124e4848260208601612431565b91505092915050565b6000813590506124fc816138fe565b92915050565b60006020828403121561251457600080fd5b60006125228482850161246f565b91505092915050565b6000806040838503121561253e57600080fd5b600061254c8582860161246f565b925050602061255d8582860161246f565b9150509250929050565b60008060006060848603121561257c57600080fd5b600061258a8682870161246f565b935050602061259b8682870161246f565b92505060406125ac868287016124ed565b9150509250925092565b600080600080608085870312156125cc57600080fd5b60006125da8782880161246f565b94505060206125eb8782880161246f565b93505060406125fc878288016124ed565b925050606085013567ffffffffffffffff81111561261957600080fd5b612625878288016124c3565b91505092959194509250565b6000806040838503121561264457600080fd5b60006126528582860161246f565b925050602061266385828601612484565b9150509250929050565b6000806040838503121561268057600080fd5b600061268e8582860161246f565b925050602061269f858286016124ed565b9150509250929050565b6000602082840312156126bb57600080fd5b60006126c984828501612499565b91505092915050565b6000602082840312156126e457600080fd5b60006126f2848285016124ae565b91505092915050565b60006020828403121561270d57600080fd5b600061271b848285016124ed565b91505092915050565b61272d81613680565b82525050565b61273c81613692565b82525050565b600061274d82613528565b612757818561353e565b9350612767818560208601613703565b612770816138a8565b840191505092915050565b600061278682613533565b612790818561354f565b93506127a0818560208601613703565b6127a9816138a8565b840191505092915050565b60006127bf82613533565b6127c98185613560565b93506127d9818560208601613703565b80840191505092915050565b60006127f2600b83613560565b91507f202d2d204e465420233a200000000000000000000000000000000000000000006000830152600b82019050919050565b600061283260328361354f565b91507f4552433732313a207472616e7366657220746f206e6f6e20455243373231526560008301527f63656976657220696d706c656d656e74657200000000000000000000000000006020830152604082019050919050565b6000612898602083613560565b91507f68747470733a2f2f692e696d6775722e636f6d2f65664c656a64652e6a7065676000830152602082019050919050565b60006128d860268361354f565b91507f4f776e61626c653a206e6577206f776e657220697320746865207a65726f206160008301527f64647265737300000000000000000000000000000000000000000000000000006020830152604082019050919050565b600061293e601c8361354f565b91507f4552433732313a20746f6b656e20616c7265616479206d696e746564000000006000830152602082019050919050565b600061297e603e83613560565b91507f222c202261747472696275746573223a205b207b202274726169745f7479706560008301527f223a20224e756d626572206f662057696e73222c202276616c7565223a2000006020830152603e82019050919050565b60006129e4602b83613560565b91507f7d2c207b202274726169745f74797065223a20224368616d70696f6e2049442260008301527f2c202276616c7565223a200000000000000000000000000000000000000000006020830152602b82019050919050565b6000612a4a60248361354f565b91507f4552433732313a207472616e7366657220746f20746865207a65726f2061646460008301527f72657373000000000000000000000000000000000000000000000000000000006020830152604082019050919050565b6000612ab060198361354f565b91507f4552433732313a20617070726f766520746f2063616c6c6572000000000000006000830152602082019050919050565b6000612af0602c8361354f565b91507f4552433732313a206f70657261746f7220717565727920666f72206e6f6e657860008301527f697374656e7420746f6b656e00000000000000000000000000000000000000006020830152604082019050919050565b6000612b5660388361354f565b91507f4552433732313a20617070726f76652063616c6c6572206973206e6f74206f7760008301527f6e6572206e6f7220617070726f76656420666f7220616c6c00000000000000006020830152604082019050919050565b6000612bbc602a8361354f565b91507f4552433732313a2062616c616e636520717565727920666f7220746865207a6560008301527f726f2061646472657373000000000000000000000000000000000000000000006020830152604082019050919050565b6000612c2260298361354f565b91507f4552433732313a206f776e657220717565727920666f72206e6f6e657869737460008301527f656e7420746f6b656e00000000000000000000000000000000000000000000006020830152604082019050919050565b6000612c88602583613560565b91507f7d2c207b202274726169745f74797065223a20224c6576656c222c202276616c60008301527f7565223a200000000000000000000000000000000000000000000000000000006020830152602582019050919050565b6000612cee604e83613560565b91507f222c20226465736372697074696f6e223a202254686973206368616d70696f6e60008301527f20697320676f696e6720746f2074616b65206f76657220746865206172656e6160208301527f21222c2022696d616765223a20220000000000000000000000000000000000006040830152604e82019050919050565b6000612d7a600483613560565b91507f7d205d7d000000000000000000000000000000000000000000000000000000006000830152600482019050919050565b6000612dba60208361354f565b91507f4552433732313a206d696e7420746f20746865207a65726f20616464726573736000830152602082019050919050565b6000612dfa600883613560565b91507f4368616d70696f6e0000000000000000000000000000000000000000000000006000830152600882019050919050565b6000612e3a602c8361354f565b91507f4552433732313a20617070726f76656420717565727920666f72206e6f6e657860008301527f697374656e7420746f6b656e00000000000000000000000000000000000000006020830152604082019050919050565b6000612ea060208361354f565b91507f4f776e61626c653a2063616c6c6572206973206e6f7420746865206f776e65726000830152602082019050919050565b6000612ee060298361354f565b91507f4552433732313a207472616e73666572206f6620746f6b656e2074686174206960008301527f73206e6f74206f776e00000000000000000000000000000000000000000000006020830152604082019050919050565b6000612f46600a83613560565b91507f7b226e616d65223a2022000000000000000000000000000000000000000000006000830152600a82019050919050565b6000612f8660218361354f565b91507f4552433732313a20617070726f76616c20746f2063757272656e74206f776e6560008301527f72000000000000000000000000000000000000000000000000000000000000006020830152604082019050919050565b6000612fec601d83613560565b91507f646174613a6170706c69636174696f6e2f6a736f6e3b6261736536342c0000006000830152601d82019050919050565b600061302c60318361354f565b91507f4552433732313a207472616e736665722063616c6c6572206973206e6f74206f60008301527f776e6572206e6f7220617070726f7665640000000000000000000000000000006020830152604082019050919050565b61308e816136ea565b82525050565b6130a56130a0826136ea565b6137b1565b82525050565b60006130b682612f39565b91506130c182612ded565b91506130cc826127e5565b91506130d882876127b4565b91506130e382612ce1565b91506130ee8261288b565b91506130f982612971565b915061310582866127b4565b915061311082612c7b565b915061311c82856127b4565b9150613127826129d7565b915061313382846127b4565b915061313e82612d6d565b915081905095945050505050565b600061315782612fdf565b915061316382846127b4565b915081905092915050565b600061317a8284613094565b60208201915081905092915050565b600060208201905061319e6000830184612724565b92915050565b60006080820190506131b96000830187612724565b6131c66020830186612724565b6131d36040830185613085565b81810360608301526131e58184612742565b905095945050505050565b60006020820190506132056000830184612733565b92915050565b60006020820190508181036000830152613225818461277b565b905092915050565b6000602082019050818103600083015261324681612825565b9050919050565b60006020820190508181036000830152613266816128cb565b9050919050565b6000602082019050818103600083015261328681612931565b9050919050565b600060208201905081810360008301526132a681612a3d565b9050919050565b600060208201905081810360008301526132c681612aa3565b9050919050565b600060208201905081810360008301526132e681612ae3565b9050919050565b6000602082019050818103600083015261330681612b49565b9050919050565b6000602082019050818103600083015261332681612baf565b9050919050565b6000602082019050818103600083015261334681612c15565b9050919050565b6000602082019050818103600083015261336681612dad565b9050919050565b6000602082019050818103600083015261338681612e2d565b9050919050565b600060208201905081810360008301526133a681612e93565b9050919050565b600060208201905081810360008301526133c681612ed3565b9050919050565b600060208201905081810360008301526133e681612f79565b9050919050565b600060208201905081810360008301526134068161301f565b9050919050565b60006020820190506134226000830184613085565b92915050565b600060808201905061343d6000830187613085565b61344a6020830186613085565b6134576040830185613085565b6134646060830184613085565b95945050505050565b600060a0820190506134826000830188613085565b61348f6020830187613085565b61349c6040830186613085565b6134a96060830185613085565b81810360808301526134bb818461277b565b90509695505050505050565b6000604051905081810181811067ffffffffffffffff821117156134ee576134ed613879565b5b8060405250919050565b600067ffffffffffffffff82111561351357613512613879565b5b601f19601f8301169050602081019050919050565b600081519050919050565b600081519050919050565b600082825260208201905092915050565b600082825260208201905092915050565b600081905092915050565b6000613576826136ea565b9150613581836136ea565b9250827fffffffffffffffffffffffffffffffffffffffffffffffffffffffffffffffff038211156135b6576135b56137ec565b5b828201905092915050565b60006135cc826136ea565b91506135d7836136ea565b9250826135e7576135e661381b565b5b828204905092915050565b60006135fd826136ea565b9150613608836136ea565b9250817fffffffffffffffffffffffffffffffffffffffffffffffffffffffffffffffff0483118215151615613641576136406137ec565b5b828202905092915050565b6000613657826136ea565b9150613662836136ea565b925082821015613675576136746137ec565b5b828203905092915050565b600061368b826136ca565b9050919050565b60008115159050919050565b60007fffffffff0000000000000000000000000000000000000000000000000000000082169050919050565b600073ffffffffffffffffffffffffffffffffffffffff82169050919050565b6000819050919050565b82818337600083830152505050565b60005b83811015613721578082015181840152602081019050613706565b83811115613730576000848401525b50505050565b6000600282049050600182168061374e57607f821691505b602082108114156137625761376161384a565b5b50919050565b6000613773826136ea565b91507fffffffffffffffffffffffffffffffffffffffffffffffffffffffffffffffff8214156137a6576137a56137ec565b5b600182019050919050565b6000819050919050565b60006137c6826136ea565b91506137d1836136ea565b9250826137e1576137e061381b565b5b828206905092915050565b7f4e487b7100000000000000000000000000000000000000000000000000000000600052601160045260246000fd5b7f4e487b7100000000000000000000000000000000000000000000000000000000600052601260045260246000fd5b7f4e487b7100000000000000000000000000000000000000000000000000000000600052602260045260246000fd5b7f4e487b7100000000000000000000000000000000000000000000000000000000600052604160045260246000fd5b6000601f19601f8301169050919050565b6138c281613680565b81146138cd57600080fd5b50565b6138d981613692565b81146138e457600080fd5b50565b6138f08161369e565b81146138fb57600080fd5b50565b613907816136ea565b811461391257600080fd5b5056fe68747470733a2f2f75706c6f61642e77696b696d656469612e6f72672f77696b6970656469612f636f6d6d6f6e732f7468756d622f622f62362f496d6167655f637265617465645f776974685f615f6d6f62696c655f70686f6e652e706e672f34343070782d496d6167655f637265617465645f776974685f615f6d6f62696c655f70686f6e652e706e674142434445464748494a4b4c4d4e4f505152535455565758595a6162636465666768696a6b6c6d6e6f707172737475767778797a303132333435363738392b2fa2646970667358221220ff227050b9dea59a5ff4deb56f7d84f509559f78afaf04c783d7f70b79644f2f64736f6c63430008000033",
  "linkReferences": {},
  "deployedLinkReferences": {}
}